{
  "contractName": "ERIS",
  "abi": [
    {
      "inputs": [],
      "stateMutability": "nonpayable",
      "type": "constructor"
    },
    {
      "anonymous": false,
      "inputs": [
        {
          "indexed": true,
          "internalType": "address",
          "name": "owner",
          "type": "address"
        },
        {
          "indexed": true,
          "internalType": "address",
          "name": "spender",
          "type": "address"
        },
        {
          "indexed": false,
          "internalType": "uint256",
          "name": "value",
          "type": "uint256"
        }
      ],
      "name": "Approval",
      "type": "event"
    },
    {
      "anonymous": false,
      "inputs": [
        {
          "indexed": true,
          "internalType": "uint256",
          "name": "epoch",
          "type": "uint256"
        },
        {
          "indexed": false,
          "internalType": "uint256",
          "name": "totalSupply",
          "type": "uint256"
        }
      ],
      "name": "LogRebase",
      "type": "event"
    },
    {
      "anonymous": false,
      "inputs": [
        {
          "indexed": true,
          "internalType": "address",
          "name": "account",
          "type": "address"
        }
      ],
      "name": "MinterAdded",
      "type": "event"
    },
    {
      "anonymous": false,
      "inputs": [
        {
          "indexed": true,
          "internalType": "address",
          "name": "account",
          "type": "address"
        }
      ],
      "name": "MinterRemoved",
      "type": "event"
    },
    {
      "anonymous": false,
      "inputs": [
        {
          "indexed": true,
          "internalType": "address",
          "name": "previousOwner",
          "type": "address"
        }
      ],
      "name": "OwnershipRenounced",
      "type": "event"
    },
    {
      "anonymous": false,
      "inputs": [
        {
          "indexed": true,
          "internalType": "address",
          "name": "previousOwner",
          "type": "address"
        },
        {
          "indexed": true,
          "internalType": "address",
          "name": "newOwner",
          "type": "address"
        }
      ],
      "name": "OwnershipTransferred",
      "type": "event"
    },
    {
      "anonymous": false,
      "inputs": [
        {
          "indexed": true,
          "internalType": "address",
          "name": "from",
          "type": "address"
        },
        {
          "indexed": true,
          "internalType": "address",
          "name": "to",
          "type": "address"
        },
        {
          "indexed": false,
          "internalType": "uint256",
          "name": "value",
          "type": "uint256"
        }
      ],
      "name": "Transfer",
      "type": "event"
    },
    {
      "inputs": [],
      "name": "RiskFreeValue",
      "outputs": [
        {
          "internalType": "uint256",
          "name": "",
          "type": "uint256"
        }
      ],
      "stateMutability": "view",
      "type": "function",
      "constant": true
    },
    {
      "inputs": [],
      "name": "RiskFreeValueReceiver",
      "outputs": [
        {
          "internalType": "address",
          "name": "",
          "type": "address"
        }
      ],
      "stateMutability": "view",
      "type": "function",
      "constant": true
    },
    {
      "inputs": [],
      "name": "Treasury",
      "outputs": [
        {
          "internalType": "uint256",
          "name": "",
          "type": "uint256"
        }
      ],
      "stateMutability": "view",
      "type": "function",
      "constant": true
    },
    {
      "inputs": [],
      "name": "TreasuryReceiver",
      "outputs": [
        {
          "internalType": "address",
          "name": "",
          "type": "address"
        }
      ],
      "stateMutability": "view",
      "type": "function",
      "constant": true
    },
    {
      "inputs": [],
      "name": "autoLiquidityReceiver",
      "outputs": [
        {
          "internalType": "address",
          "name": "",
          "type": "address"
        }
      ],
      "stateMutability": "view",
      "type": "function",
      "constant": true
    },
    {
      "inputs": [
        {
          "internalType": "address",
          "name": "",
          "type": "address"
        }
      ],
      "name": "blacklist",
      "outputs": [
        {
          "internalType": "bool",
          "name": "",
          "type": "bool"
        }
      ],
      "stateMutability": "view",
      "type": "function",
      "constant": true
    },
    {
      "inputs": [],
      "name": "decimals",
      "outputs": [
        {
          "internalType": "uint8",
          "name": "",
          "type": "uint8"
        }
      ],
      "stateMutability": "view",
      "type": "function",
      "constant": true
    },
    {
      "inputs": [],
      "name": "feeDenominator",
      "outputs": [
        {
          "internalType": "uint256",
          "name": "",
          "type": "uint256"
        }
      ],
      "stateMutability": "view",
      "type": "function",
      "constant": true
    },
    {
      "inputs": [],
      "name": "initialDistributionFinished",
      "outputs": [
        {
          "internalType": "bool",
          "name": "",
          "type": "bool"
        }
      ],
      "stateMutability": "view",
      "type": "function",
      "constant": true
    },
    {
      "inputs": [
        {
          "internalType": "address",
          "name": "account",
          "type": "address"
        }
      ],
      "name": "isMinter",
      "outputs": [
        {
          "internalType": "bool",
          "name": "",
          "type": "bool"
        }
      ],
      "stateMutability": "view",
      "type": "function",
      "constant": true
    },
    {
      "inputs": [],
      "name": "isOwner",
      "outputs": [
        {
          "internalType": "bool",
          "name": "",
          "type": "bool"
        }
      ],
      "stateMutability": "view",
      "type": "function",
      "constant": true
    },
    {
      "inputs": [],
      "name": "liquidityFee",
      "outputs": [
        {
          "internalType": "uint256",
          "name": "",
          "type": "uint256"
        }
      ],
      "stateMutability": "view",
      "type": "function",
      "constant": true
    },
    {
      "inputs": [],
      "name": "name",
      "outputs": [
        {
          "internalType": "string",
          "name": "",
          "type": "string"
        }
      ],
      "stateMutability": "view",
      "type": "function",
      "constant": true
    },
    {
      "inputs": [],
      "name": "owner",
      "outputs": [
        {
          "internalType": "address",
          "name": "",
          "type": "address"
        }
      ],
      "stateMutability": "view",
      "type": "function",
      "constant": true
    },
    {
      "inputs": [],
      "name": "pair",
      "outputs": [
        {
          "internalType": "address",
          "name": "",
          "type": "address"
        }
      ],
      "stateMutability": "view",
      "type": "function",
      "constant": true
    },
    {
      "inputs": [],
      "name": "pairContract",
      "outputs": [
        {
          "internalType": "contract InterfaceLP",
          "name": "",
          "type": "address"
        }
      ],
      "stateMutability": "view",
      "type": "function",
      "constant": true
    },
    {
      "inputs": [],
      "name": "renounceMinter",
      "outputs": [],
      "stateMutability": "nonpayable",
      "type": "function"
    },
    {
      "inputs": [],
      "name": "renounceOwnership",
      "outputs": [],
      "stateMutability": "nonpayable",
      "type": "function"
    },
    {
      "inputs": [],
      "name": "router",
      "outputs": [
        {
          "internalType": "contract IDEXRouter",
          "name": "",
          "type": "address"
        }
      ],
      "stateMutability": "view",
      "type": "function",
      "constant": true
    },
    {
      "inputs": [],
      "name": "sellFee",
      "outputs": [
        {
          "internalType": "uint256",
          "name": "",
          "type": "uint256"
        }
      ],
      "stateMutability": "view",
      "type": "function",
      "constant": true
    },
    {
      "inputs": [],
      "name": "swapEnabled",
      "outputs": [
        {
          "internalType": "bool",
          "name": "",
          "type": "bool"
        }
      ],
      "stateMutability": "view",
      "type": "function",
      "constant": true
    },
    {
      "inputs": [],
      "name": "symbol",
      "outputs": [
        {
          "internalType": "string",
          "name": "",
          "type": "string"
        }
      ],
      "stateMutability": "view",
      "type": "function",
      "constant": true
    },
    {
      "inputs": [],
      "name": "totalFee",
      "outputs": [
        {
          "internalType": "uint256",
          "name": "",
          "type": "uint256"
        }
      ],
      "stateMutability": "view",
      "type": "function",
      "constant": true
    },
    {
      "inputs": [
        {
          "internalType": "address",
          "name": "newOwner",
          "type": "address"
        }
      ],
      "name": "transferOwnership",
      "outputs": [],
      "stateMutability": "nonpayable",
      "type": "function"
    },
    {
      "stateMutability": "payable",
      "type": "receive",
      "payable": true
    },
    {
      "inputs": [
        {
          "internalType": "address",
          "name": "_user",
          "type": "address"
        },
        {
          "internalType": "bool",
          "name": "_flag",
          "type": "bool"
        }
      ],
      "name": "updateBlacklist",
      "outputs": [],
      "stateMutability": "nonpayable",
      "type": "function"
    },
    {
      "inputs": [
        {
          "internalType": "uint256",
          "name": "epoch",
          "type": "uint256"
        },
        {
          "internalType": "int256",
          "name": "supplyDelta",
          "type": "int256"
        }
      ],
      "name": "rebase",
      "outputs": [
        {
          "internalType": "uint256",
          "name": "",
          "type": "uint256"
        }
      ],
      "stateMutability": "nonpayable",
      "type": "function"
    },
    {
      "inputs": [],
      "name": "remainToRabase",
      "outputs": [
        {
          "internalType": "uint256",
          "name": "",
          "type": "uint256"
        }
      ],
      "stateMutability": "view",
      "type": "function",
      "constant": true
    },
    {
      "inputs": [],
      "name": "totalSupply",
      "outputs": [
        {
          "internalType": "uint256",
          "name": "",
          "type": "uint256"
        }
      ],
      "stateMutability": "view",
      "type": "function",
      "constant": true
    },
    {
      "inputs": [
        {
          "internalType": "address",
          "name": "to",
          "type": "address"
        },
        {
          "internalType": "uint256",
          "name": "value",
          "type": "uint256"
        }
      ],
      "name": "transfer",
      "outputs": [
        {
          "internalType": "bool",
          "name": "",
          "type": "bool"
        }
      ],
      "stateMutability": "nonpayable",
      "type": "function"
    },
    {
      "inputs": [
        {
          "internalType": "address",
          "name": "_address",
          "type": "address"
        }
      ],
      "name": "setLP",
      "outputs": [],
      "stateMutability": "nonpayable",
      "type": "function"
    },
    {
      "inputs": [
        {
          "internalType": "address",
          "name": "owner_",
          "type": "address"
        },
        {
          "internalType": "address",
          "name": "spender",
          "type": "address"
        }
      ],
      "name": "allowance",
      "outputs": [
        {
          "internalType": "uint256",
          "name": "",
          "type": "uint256"
        }
      ],
      "stateMutability": "view",
      "type": "function",
      "constant": true
    },
    {
      "inputs": [
        {
          "internalType": "address",
          "name": "who",
          "type": "address"
        }
      ],
      "name": "balanceOf",
      "outputs": [
        {
          "internalType": "uint256",
          "name": "",
          "type": "uint256"
        }
      ],
      "stateMutability": "view",
      "type": "function",
      "constant": true
    },
    {
      "inputs": [
        {
          "internalType": "address",
          "name": "from",
          "type": "address"
        },
        {
          "internalType": "address",
          "name": "to",
          "type": "address"
        },
        {
          "internalType": "uint256",
          "name": "value",
          "type": "uint256"
        }
      ],
      "name": "transferFrom",
      "outputs": [
        {
          "internalType": "bool",
          "name": "",
          "type": "bool"
        }
      ],
      "stateMutability": "nonpayable",
      "type": "function"
    },
    {
      "inputs": [
        {
          "internalType": "address",
          "name": "spender",
          "type": "address"
        },
        {
          "internalType": "uint256",
          "name": "subtractedValue",
          "type": "uint256"
        }
      ],
      "name": "decreaseAllowance",
      "outputs": [
        {
          "internalType": "bool",
          "name": "",
          "type": "bool"
        }
      ],
      "stateMutability": "nonpayable",
      "type": "function"
    },
    {
      "inputs": [
        {
          "internalType": "address",
          "name": "spender",
          "type": "address"
        },
        {
          "internalType": "uint256",
          "name": "addedValue",
          "type": "uint256"
        }
      ],
      "name": "increaseAllowance",
      "outputs": [
        {
          "internalType": "bool",
          "name": "",
          "type": "bool"
        }
      ],
      "stateMutability": "nonpayable",
      "type": "function"
    },
    {
      "inputs": [
        {
          "internalType": "address",
          "name": "spender",
          "type": "address"
        },
        {
          "internalType": "uint256",
          "name": "value",
          "type": "uint256"
        }
      ],
      "name": "approve",
      "outputs": [
        {
          "internalType": "bool",
          "name": "",
          "type": "bool"
        }
      ],
      "stateMutability": "nonpayable",
      "type": "function"
    },
    {
      "inputs": [
        {
          "internalType": "address",
          "name": "_addr",
          "type": "address"
        }
      ],
      "name": "checkFeeExempt",
      "outputs": [
        {
          "internalType": "bool",
          "name": "",
          "type": "bool"
        }
      ],
      "stateMutability": "view",
      "type": "function",
      "constant": true
    },
    {
      "inputs": [],
      "name": "setInitialDistributionFinished",
      "outputs": [],
      "stateMutability": "nonpayable",
      "type": "function"
    },
    {
      "inputs": [
        {
          "internalType": "address",
          "name": "_addr",
          "type": "address"
        }
      ],
      "name": "enableTransfer",
      "outputs": [],
      "stateMutability": "nonpayable",
      "type": "function"
    },
    {
      "inputs": [
        {
          "internalType": "address",
          "name": "_addr",
          "type": "address"
        }
      ],
      "name": "setFeeExempt",
      "outputs": [],
      "stateMutability": "nonpayable",
      "type": "function"
    },
    {
      "inputs": [
        {
          "internalType": "address",
          "name": "recipient",
          "type": "address"
        },
        {
          "internalType": "uint256",
          "name": "amount",
          "type": "uint256"
        }
      ],
      "name": "mint",
      "outputs": [],
      "stateMutability": "nonpayable",
      "type": "function"
    },
    {
      "inputs": [
        {
          "internalType": "bool",
          "name": "_enabled",
          "type": "bool"
        },
        {
          "internalType": "uint256",
          "name": "_num",
          "type": "uint256"
        },
        {
          "internalType": "uint256",
          "name": "_denom",
          "type": "uint256"
        }
      ],
      "name": "setSwapBackSettings",
      "outputs": [],
      "stateMutability": "nonpayable",
      "type": "function"
    },
    {
      "inputs": [],
      "name": "getCirculatingSupply",
      "outputs": [
        {
          "internalType": "uint256",
          "name": "",
          "type": "uint256"
        }
      ],
      "stateMutability": "view",
      "type": "function",
      "constant": true
    },
    {
      "inputs": [
        {
          "internalType": "uint256",
          "name": "target",
          "type": "uint256"
        },
        {
          "internalType": "uint256",
          "name": "accuracy",
          "type": "uint256"
        }
      ],
      "name": "setTargetLiquidity",
      "outputs": [],
      "stateMutability": "nonpayable",
      "type": "function"
    },
    {
      "inputs": [
        {
          "internalType": "address",
          "name": "account",
          "type": "address"
        }
      ],
      "name": "addMinter",
      "outputs": [],
      "stateMutability": "nonpayable",
      "type": "function"
    },
    {
      "inputs": [
        {
          "internalType": "address",
          "name": "account",
          "type": "address"
        }
      ],
      "name": "removeMinter",
      "outputs": [],
      "stateMutability": "nonpayable",
      "type": "function"
    },
    {
      "inputs": [],
      "name": "isNotInSwap",
      "outputs": [
        {
          "internalType": "bool",
          "name": "",
          "type": "bool"
        }
      ],
      "stateMutability": "view",
      "type": "function",
      "constant": true
    },
    {
      "inputs": [
        {
          "internalType": "address[]",
          "name": "recipients",
          "type": "address[]"
        },
        {
          "internalType": "uint256[]",
          "name": "values",
          "type": "uint256[]"
        }
      ],
      "name": "sendPresale",
      "outputs": [],
      "stateMutability": "nonpayable",
      "type": "function"
    },
    {
      "inputs": [],
      "name": "checkSwapThreshold",
      "outputs": [
        {
          "internalType": "uint256",
          "name": "",
          "type": "uint256"
        }
      ],
      "stateMutability": "view",
      "type": "function",
      "constant": true
    },
    {
      "inputs": [],
      "name": "manualSync",
      "outputs": [],
      "stateMutability": "nonpayable",
      "type": "function"
    },
    {
      "inputs": [
        {
          "internalType": "address",
          "name": "_autoLiquidityReceiver",
          "type": "address"
        },
        {
          "internalType": "address",
          "name": "_TreasuryReceiver",
          "type": "address"
        },
        {
          "internalType": "address",
          "name": "_RiskFreeValueReceiver",
          "type": "address"
        }
      ],
      "name": "setFeeReceivers",
      "outputs": [],
      "stateMutability": "nonpayable",
      "type": "function"
    },
    {
      "inputs": [
        {
          "internalType": "uint256",
          "name": "_liquidityFee",
          "type": "uint256"
        },
        {
          "internalType": "uint256",
          "name": "_RiskFreeValue",
          "type": "uint256"
        },
        {
          "internalType": "uint256",
          "name": "_Treasury",
          "type": "uint256"
        },
        {
          "internalType": "uint256",
          "name": "_sellFee",
          "type": "uint256"
        },
        {
          "internalType": "uint256",
          "name": "_feeDenominator",
          "type": "uint256"
        }
      ],
      "name": "setFees",
      "outputs": [],
      "stateMutability": "nonpayable",
      "type": "function"
    },
    {
      "inputs": [
        {
          "internalType": "uint256",
          "name": "amountPercentage",
          "type": "uint256"
        },
        {
          "internalType": "address",
          "name": "adr",
          "type": "address"
        }
      ],
      "name": "clearStuckBalance",
      "outputs": [],
      "stateMutability": "nonpayable",
      "type": "function"
    },
    {
      "inputs": [
        {
          "internalType": "address",
          "name": "tokenAddress",
          "type": "address"
        },
        {
          "internalType": "uint256",
          "name": "tokens",
          "type": "uint256"
        }
      ],
      "name": "rescueToken",
      "outputs": [
        {
          "internalType": "bool",
          "name": "success",
          "type": "bool"
        }
      ],
      "stateMutability": "nonpayable",
      "type": "function"
    },
    {
      "inputs": [
        {
          "internalType": "uint256",
          "name": "accuracy",
          "type": "uint256"
        }
      ],
      "name": "getLiquidityBacking",
      "outputs": [
        {
          "internalType": "uint256",
          "name": "",
          "type": "uint256"
        }
      ],
      "stateMutability": "view",
      "type": "function",
      "constant": true
    },
    {
      "inputs": [
        {
          "internalType": "uint256",
          "name": "target",
          "type": "uint256"
        },
        {
          "internalType": "uint256",
          "name": "accuracy",
          "type": "uint256"
        }
      ],
      "name": "isOverLiquified",
      "outputs": [
        {
          "internalType": "bool",
          "name": "",
          "type": "bool"
        }
      ],
      "stateMutability": "view",
      "type": "function",
      "constant": true
    }
  ],
  "bytecode": "0x60806040526005600755600360085560056009556005600a55620000516009546200003d600854600754620007aa60201b620030f21790919060201c565b620007aa60201b620030f21790919060201c565b600b556064600c5561dead600d60006101000a81548173ffffffffffffffffffffffffffffffffffffffff021916908373ffffffffffffffffffffffffffffffffffffffff1602179055506000600e60006101000a81548173ffffffffffffffffffffffffffffffffffffffff021916908373ffffffffffffffffffffffffffffffffffffffff1602179055506032601255606460135573e3aa453fefa2ee7305b70df5fa6129f90c18c04e601560006101000a81548173ffffffffffffffffffffffffffffffffffffffff021916908373ffffffffffffffffffffffffffffffffffffffff1602179055506001601560146101000a81548160ff021916908315150217905550612710600a6012600a0a63ee6b280002600019816200017357fe5b066000190302816200018157fe5b046016553480156200019257600080fd5b506040518060400160405280601781526020017f45524953204175746f205374616b696e6720546f6b656e0000000000000000008152506040518060400160405280600481526020017f4552495300000000000000000000000000000000000000000000000000000000815250601282600090805190602001906200021992919062000c70565b5081600190805190602001906200023292919062000c70565b5080600260006101000a81548160ff021916908360ff16021790555050505033600260016101000a81548173ffffffffffffffffffffffffffffffffffffffff021916908373ffffffffffffffffffffffffffffffffffffffff160217905550620002a3336200083360201b60201c565b7310ed43c718714eb63d5aa57b78b54704e256024e601460006101000a81548173ffffffffffffffffffffffffffffffffffffffff021916908373ffffffffffffffffffffffffffffffffffffffff16021790555073fa1d544d46c7c50d7b7d7d2e85915f1b129a9386600f60006101000a81548173ffffffffffffffffffffffffffffffffffffffff021916908373ffffffffffffffffffffffffffffffffffffffff1602179055507327e0c3c11f2184c323d8c16129b3a26cc5c7b382601060006101000a81548173ffffffffffffffffffffffffffffffffffffffff021916908373ffffffffffffffffffffffffffffffffffffffff16021790555072de99c90e8971d3e1c9cba724381b537f6e88c1601160006101000a81548173ffffffffffffffffffffffffffffffffffffffff021916908373ffffffffffffffffffffffffffffffffffffffff1602179055507fffffffffffffffffffffffffffffffffffffffffffffffffffffffffffffffff601b60003073ffffffffffffffffffffffffffffffffffffffff1673ffffffffffffffffffffffffffffffffffffffff1681526020019081526020016000206000601460009054906101000a900473ffffffffffffffffffffffffffffffffffffffff1673ffffffffffffffffffffffffffffffffffffffff1673ffffffffffffffffffffffffffffffffffffffff16815260200190815260200160002081905550601560009054906101000a900473ffffffffffffffffffffffffffffffffffffffff16600460006101000a81548173ffffffffffffffffffffffffffffffffffffffff021916908373ffffffffffffffffffffffffffffffffffffffff1602179055506012600a0a63ee6b2800026018819055506012600a0a63ee6b280002600019816200054357fe5b0660001903601a6000601060009054906101000a900473ffffffffffffffffffffffffffffffffffffffff1673ffffffffffffffffffffffffffffffffffffffff1673ffffffffffffffffffffffffffffffffffffffff16815260200190815260200160002081905550620005e36018546012600a0a63ee6b28000260001981620005ca57fe5b06600019036200089460201b6200317a1790919060201c565b6019819055506000600460146101000a81548160ff021916908315150217905550600160066000601060009054906101000a900473ffffffffffffffffffffffffffffffffffffffff1673ffffffffffffffffffffffffffffffffffffffff1673ffffffffffffffffffffffffffffffffffffffff16815260200190815260200160002060006101000a81548160ff0219169083151502179055506001600660003073ffffffffffffffffffffffffffffffffffffffff1673ffffffffffffffffffffffffffffffffffffffff16815260200190815260200160002060006101000a81548160ff02191690831515021790555062000709601060009054906101000a900473ffffffffffffffffffffffffffffffffffffffff16620008e660201b60201c565b6000601d81905550610708601e81905550601060009054906101000a900473ffffffffffffffffffffffffffffffffffffffff1673ffffffffffffffffffffffffffffffffffffffff16600073ffffffffffffffffffffffffffffffffffffffff167fddf252ad1be2c89b69c2b068fc378daa952ba7f163c4a11628f55a4df523b3ef6018546040518082815260200191505060405180910390a362000d26565b60008082840190508381101562000829576040517f08c379a000000000000000000000000000000000000000000000000000000000815260040180806020018281038252601b8152602001807f536166654d6174683a206164646974696f6e206f766572666c6f77000000000081525060200191505060405180910390fd5b8091505092915050565b6200084e816003620009e160201b620031c41790919060201c565b8073ffffffffffffffffffffffffffffffffffffffff167f6ae172837ea30b801fbfcdd4108aa1d5bf8ff775444fd70256b44e6bf3dfc3f660405160405180910390a250565b6000620008de83836040518060400160405280601a81526020017f536166654d6174683a206469766973696f6e206279207a65726f00000000000081525062000ac560201b60201c565b905092915050565b600073ffffffffffffffffffffffffffffffffffffffff168173ffffffffffffffffffffffffffffffffffffffff1614156200092157600080fd5b8073ffffffffffffffffffffffffffffffffffffffff16600260019054906101000a900473ffffffffffffffffffffffffffffffffffffffff1673ffffffffffffffffffffffffffffffffffffffff167f8be0079c531659141344cd1fd0a4f28419497f9722a3daafe3b4186f6b6457e060405160405180910390a380600260016101000a81548173ffffffffffffffffffffffffffffffffffffffff021916908373ffffffffffffffffffffffffffffffffffffffff16021790555050565b620009f3828262000b9060201b60201c565b1562000a67576040517f08c379a000000000000000000000000000000000000000000000000000000000815260040180806020018281038252601f8152602001807f526f6c65733a206163636f756e7420616c72656164792068617320726f6c650081525060200191505060405180910390fd5b60018260000160008373ffffffffffffffffffffffffffffffffffffffff1673ffffffffffffffffffffffffffffffffffffffff16815260200190815260200160002060006101000a81548160ff0219169083151502179055505050565b6000808311829062000b75576040517f08c379a00000000000000000000000000000000000000000000000000000000081526004018080602001828103825283818151815260200191508051906020019080838360005b8381101562000b3957808201518184015260208101905062000b1c565b50505050905090810190601f16801562000b675780820380516001836020036101000a031916815260200191505b509250505060405180910390fd5b50600083858162000b8257fe5b049050809150509392505050565b60008073ffffffffffffffffffffffffffffffffffffffff168273ffffffffffffffffffffffffffffffffffffffff16141562000c19576040517f08c379a00000000000000000000000000000000000000000000000000000000081526004018080602001828103825260228152602001806200557b6022913960400191505060405180910390fd5b8260000160008373ffffffffffffffffffffffffffffffffffffffff1673ffffffffffffffffffffffffffffffffffffffff16815260200190815260200160002060009054906101000a900460ff16905092915050565b828054600181600116156101000203166002900490600052602060002090601f01602090048101928262000ca8576000855562000cf4565b82601f1062000cc357805160ff191683800117855562000cf4565b8280016001018555821562000cf4579182015b8281111562000cf357825182559160200191906001019062000cd6565b5b50905062000d03919062000d07565b5090565b5b8082111562000d2257600081600090555060010162000d08565b5090565b6148458062000d366000396000f3fe60806040526004361061036f5760003560e01c8063800cee51116101c6578063bda5c8bb116100f7578063d5938aac11610095578063dd62ed3e1161006f578063dd62ed3e14611316578063f2fde38b1461139b578063f887ea40146113ec578063f9f92be41461142d57610376565b8063d5938aac146111f3578063d7ac658514611244578063d7c010321461128557610376565b8063d1fce264116100d1578063d1fce26414611035578063d37e219d14611062578063d43997901461113d578063d51ed1c8146111a457610376565b8063bda5c8bb14610f78578063ca33e64c14610fa3578063d088935814610fe457610376565b8063983b2d5611610164578063a8aa1b311161013e578063a8aa1b3114610e34578063a9059cbb14610e75578063aa271e1a14610ee6578063b785cb3b14610f4d57610376565b8063983b2d5614610d5b5780639865027514610dac578063a457c2d714610dc357610376565b80638f32d59b116101a05780638f32d59b14610c165780639155e08314610c4357806395d89b4114610ca057806398118cb414610d3057610376565b8063800cee5114610b6757806383b4ac6814610ba85780638da5cb5b14610bd557610376565b8063313ce567116102a05780636d351d1a1161023e578063715018a611610218578063715018a614610a8f578063749796a514610aa6578063753d02a114610af75780637a43e23f14610b0e57610376565b80636d351d1a146109d25780636ddd1713146109fd57806370a0823114610a2a57610376565b806340c10f191161027a57806340c10f19146108b05780634d709adf1461090b578063563df32f1461094c57806356a227f21461097757610376565b8063313ce567146107a057806333f3d628146107ce578063395093511461083f57610376565b8063201e79911161030d5780632b14ca56116102e75780632b14ca56146106bc5780632be6937d146106e75780632f34d282146106fe5780633092afd51461074f57610376565b8063201e7991146105bb57806323b872dd146106005780632b112e491461069157610376565b80631161ae39116103495780631161ae39146104df578063180b0d7e1461053a57806318160ddd146105655780631df4ccfc1461059057610376565b806304a66b481461037b57806306fdde03146103de578063095ea7b31461046e57610376565b3661037657005b600080fd5b34801561038757600080fd5b506103dc600480360360a081101561039e57600080fd5b810190808035906020019092919080359060200190929190803590602001909291908035906020019092919080359060200190929190505050611494565b005b3480156103ea57600080fd5b506103f361151a565b6040518080602001828103825283818151815260200191508051906020019080838360005b83811015610433578082015181840152602081019050610418565b50505050905090810190601f1680156104605780820380516001836020036101000a031916815260200191505b509250505060405180910390f35b34801561047a57600080fd5b506104c76004803603604081101561049157600080fd5b81019080803573ffffffffffffffffffffffffffffffffffffffff169060200190929190803590602001909291905050506115bc565b60405180821515815260200191505060405180910390f35b3480156104eb57600080fd5b506105226004803603604081101561050257600080fd5b81019080803590602001909291908035906020019092919050505061172a565b60405180821515815260200191505060405180910390f35b34801561054657600080fd5b5061054f61173f565b6040518082815260200191505060405180910390f35b34801561057157600080fd5b5061057a611745565b6040518082815260200191505060405180910390f35b34801561059c57600080fd5b506105a561174f565b6040518082815260200191505060405180910390f35b3480156105c757600080fd5b506105fe600480360360408110156105de57600080fd5b810190808035906020019092919080359060200190929190505050611755565b005b34801561060c57600080fd5b506106796004803603606081101561062357600080fd5b81019080803573ffffffffffffffffffffffffffffffffffffffff169060200190929190803573ffffffffffffffffffffffffffffffffffffffff16906020019092919080359060200190929190505050611778565b60405180821515815260200191505060405180910390f35b34801561069d57600080fd5b506106a66119b7565b6040518082815260200191505060405180910390f35b3480156106c857600080fd5b506106d1611ad2565b6040518082815260200191505060405180910390f35b3480156106f357600080fd5b506106fc611ad8565b005b34801561070a57600080fd5b5061074d6004803603602081101561072157600080fd5b81019080803573ffffffffffffffffffffffffffffffffffffffff169060200190929190505050611b06565b005b34801561075b57600080fd5b5061079e6004803603602081101561077257600080fd5b81019080803573ffffffffffffffffffffffffffffffffffffffff169060200190929190505050611ba6565b005b3480156107ac57600080fd5b506107b5611bc3565b604051808260ff16815260200191505060405180910390f35b3480156107da57600080fd5b50610827600480360360408110156107f157600080fd5b81019080803573ffffffffffffffffffffffffffffffffffffffff16906020019092919080359060200190929190505050611bda565b60405180821515815260200191505060405180910390f35b34801561084b57600080fd5b506108986004803603604081101561086257600080fd5b81019080803573ffffffffffffffffffffffffffffffffffffffff16906020019092919080359060200190929190505050611ca1565b60405180821515815260200191505060405180910390f35b3480156108bc57600080fd5b50610909600480360360408110156108d357600080fd5b81019080803573ffffffffffffffffffffffffffffffffffffffff16906020019092919080359060200190929190505050611f19565b005b34801561091757600080fd5b5061092061211b565b604051808273ffffffffffffffffffffffffffffffffffffffff16815260200191505060405180910390f35b34801561095857600080fd5b50610961612141565b6040518082815260200191505060405180910390f35b34801561098357600080fd5b506109d06004803603604081101561099a57600080fd5b8101908080359060200190929190803573ffffffffffffffffffffffffffffffffffffffff169060200190929190505050612147565b005b3480156109de57600080fd5b506109e76121b5565b6040518082815260200191505060405180910390f35b348015610a0957600080fd5b50610a126121d3565b60405180821515815260200191505060405180910390f35b348015610a3657600080fd5b50610a7960048036036020811015610a4d57600080fd5b81019080803573ffffffffffffffffffffffffffffffffffffffff1690602001909291905050506121e6565b6040518082815260200191505060405180910390f35b348015610a9b57600080fd5b50610aa4612243565b005b348015610ab257600080fd5b50610af560048036036020811015610ac957600080fd5b81019080803573ffffffffffffffffffffffffffffffffffffffff1690602001909291905050506122fd565b005b348015610b0357600080fd5b50610b0c612369565b005b348015610b1a57600080fd5b50610b5160048036036040811015610b3157600080fd5b8101908080359060200190929190803590602001909291905050506123ed565b6040518082815260200191505060405180910390f35b348015610b7357600080fd5b50610b7c6125f9565b604051808273ffffffffffffffffffffffffffffffffffffffff16815260200191505060405180910390f35b348015610bb457600080fd5b50610bbd61261f565b60405180821515815260200191505060405180910390f35b348015610be157600080fd5b50610bea612637565b604051808273ffffffffffffffffffffffffffffffffffffffff16815260200191505060405180910390f35b348015610c2257600080fd5b50610c2b612661565b60405180821515815260200191505060405180910390f35b348015610c4f57600080fd5b50610c9e60048036036040811015610c6657600080fd5b81019080803573ffffffffffffffffffffffffffffffffffffffff1690602001909291908035151590602001909291905050506126b9565b005b348015610cac57600080fd5b50610cb5612725565b6040518080602001828103825283818151815260200191508051906020019080838360005b83811015610cf5578082015181840152602081019050610cda565b50505050905090810190601f168015610d225780820380516001836020036101000a031916815260200191505b509250505060405180910390f35b348015610d3c57600080fd5b50610d456127c7565b6040518082815260200191505060405180910390f35b348015610d6757600080fd5b50610daa60048036036020811015610d7e57600080fd5b81019080803573ffffffffffffffffffffffffffffffffffffffff1690602001909291905050506127cd565b005b348015610db857600080fd5b50610dc16127ea565b005b348015610dcf57600080fd5b50610e1c60048036036040811015610de657600080fd5b81019080803573ffffffffffffffffffffffffffffffffffffffff169060200190929190803590602001909291905050506127f5565b60405180821515815260200191505060405180910390f35b348015610e4057600080fd5b50610e49612b02565b604051808273ffffffffffffffffffffffffffffffffffffffff16815260200191505060405180910390f35b348015610e8157600080fd5b50610ece60048036036040811015610e9857600080fd5b81019080803573ffffffffffffffffffffffffffffffffffffffff16906020019092919080359060200190929190505050612b28565b60405180821515815260200191505060405180910390f35b348015610ef257600080fd5b50610f3560048036036020811015610f0957600080fd5b81019080803573ffffffffffffffffffffffffffffffffffffffff169060200190929190505050612bf8565b60405180821515815260200191505060405180910390f35b348015610f5957600080fd5b50610f62612c15565b6040518082815260200191505060405180910390f35b348015610f8457600080fd5b50610f8d612c59565b6040518082815260200191505060405180910390f35b348015610faf57600080fd5b50610fb8612c5f565b604051808273ffffffffffffffffffffffffffffffffffffffff16815260200191505060405180910390f35b348015610ff057600080fd5b506110336004803603606081101561100757600080fd5b810190808035151590602001909291908035906020019092919080359060200190929190505050612c85565b005b34801561104157600080fd5b5061104a612cf9565b60405180821515815260200191505060405180910390f35b34801561106e57600080fd5b5061113b6004803603604081101561108557600080fd5b81019080803590602001906401000000008111156110a257600080fd5b8201836020820111156110b457600080fd5b803590602001918460208302840111640100000000831117156110d657600080fd5b9091929391929390803590602001906401000000008111156110f757600080fd5b82018360208201111561110957600080fd5b8035906020019184602083028401116401000000008311171561112b57600080fd5b9091929391929390505050612d0c565b005b34801561114957600080fd5b5061118c6004803603602081101561116057600080fd5b81019080803573ffffffffffffffffffffffffffffffffffffffff169060200190929190505050612d85565b60405180821515815260200191505060405180910390f35b3480156111b057600080fd5b506111dd600480360360208110156111c757600080fd5b8101908080359060200190929190505050612ddb565b6040518082815260200191505060405180910390f35b3480156111ff57600080fd5b506112426004803603602081101561121657600080fd5b81019080803573ffffffffffffffffffffffffffffffffffffffff169060200190929190505050612e9d565b005b34801561125057600080fd5b50611259612f09565b604051808273ffffffffffffffffffffffffffffffffffffffff16815260200191505060405180910390f35b34801561129157600080fd5b50611314600480360360608110156112a857600080fd5b81019080803573ffffffffffffffffffffffffffffffffffffffff169060200190929190803573ffffffffffffffffffffffffffffffffffffffff169060200190929190803573ffffffffffffffffffffffffffffffffffffffff169060200190929190505050612f2f565b005b34801561132257600080fd5b506113856004803603604081101561133957600080fd5b81019080803573ffffffffffffffffffffffffffffffffffffffff169060200190929190803573ffffffffffffffffffffffffffffffffffffffff169060200190929190505050613008565b6040518082815260200191505060405180910390f35b3480156113a757600080fd5b506113ea600480360360208110156113be57600080fd5b81019080803573ffffffffffffffffffffffffffffffffffffffff16906020019092919050505061308f565b005b3480156113f857600080fd5b506114016130ac565b604051808273ffffffffffffffffffffffffffffffffffffffff16815260200191505060405180910390f35b34801561143957600080fd5b5061147c6004803603602081101561145057600080fd5b81019080803573ffffffffffffffffffffffffffffffffffffffff1690602001909291905050506130d2565b60405180821515815260200191505060405180910390f35b61149c612661565b6114a557600080fd5b84600781905550836009819055508260088190555081600a819055506114ec6009546114de6008546007546130f290919063ffffffff16565b6130f290919063ffffffff16565b600b8190555080600c819055506004600c548161150557fe5b04600b541061151357600080fd5b5050505050565b606060008054600181600116156101000203166002900480601f0160208091040260200160405190810160405280929190818152602001828054600181600116156101000203166002900480156115b25780601f10611587576101008083540402835291602001916115b2565b820191906000526020600020905b81548152906001019060200180831161159557829003601f168201915b5050505050905090565b6000600460149054906101000a900460ff16806115dd57506115dc612661565b5b806116315750600560003373ffffffffffffffffffffffffffffffffffffffff1673ffffffffffffffffffffffffffffffffffffffff16815260200190815260200160002060009054906101000a900460ff165b61163a57600080fd5b81601b60003373ffffffffffffffffffffffffffffffffffffffff1673ffffffffffffffffffffffffffffffffffffffff16815260200190815260200160002060008573ffffffffffffffffffffffffffffffffffffffff1673ffffffffffffffffffffffffffffffffffffffff168152602001908152602001600020819055508273ffffffffffffffffffffffffffffffffffffffff163373ffffffffffffffffffffffffffffffffffffffff167f8c5be1e5ebec7d5bd14f71427d1e84f3dd0314c0f7b2291e5b200ac8c7c3b925846040518082815260200191505060405180910390a36001905092915050565b60008261173683612ddb565b11905092915050565b600c5481565b6000601854905090565b600b5481565b61175d612661565b61176657600080fd5b81601281905550806013819055505050565b600082600073ffffffffffffffffffffffffffffffffffffffff168173ffffffffffffffffffffffffffffffffffffffff1614156117b557600080fd5b7fffffffffffffffffffffffffffffffffffffffffffffffffffffffffffffffff601b60008773ffffffffffffffffffffffffffffffffffffffff1673ffffffffffffffffffffffffffffffffffffffff16815260200190815260200160002060003373ffffffffffffffffffffffffffffffffffffffff1673ffffffffffffffffffffffffffffffffffffffff168152602001908152602001600020541461199f5761191e836040518060400160405280601681526020017f496e73756666696369656e7420416c6c6f77616e636500000000000000000000815250601b60008973ffffffffffffffffffffffffffffffffffffffff1673ffffffffffffffffffffffffffffffffffffffff16815260200190815260200160002060003373ffffffffffffffffffffffffffffffffffffffff1673ffffffffffffffffffffffffffffffffffffffff1681526020019081526020016000205461329f9092919063ffffffff16565b601b60008773ffffffffffffffffffffffffffffffffffffffff1673ffffffffffffffffffffffffffffffffffffffff16815260200190815260200160002060003373ffffffffffffffffffffffffffffffffffffffff1673ffffffffffffffffffffffffffffffffffffffff168152602001908152602001600020819055505b6119aa85858561335f565b5060019150509392505050565b6000611acd601954611abf601a6000600e60009054906101000a900473ffffffffffffffffffffffffffffffffffffffff1673ffffffffffffffffffffffffffffffffffffffff1673ffffffffffffffffffffffffffffffffffffffff16815260200190815260200160002054611ab1601a6000600d60009054906101000a900473ffffffffffffffffffffffffffffffffffffffff1673ffffffffffffffffffffffffffffffffffffffff1673ffffffffffffffffffffffffffffffffffffffff168152602001908152602001600020546012600a0a63ee6b28000260001981611a9e57fe5b06600019036136a290919063ffffffff16565b6136a290919063ffffffff16565b61317a90919063ffffffff16565b905090565b600a5481565b611ae0612661565b611ae957600080fd5b6001600460146101000a81548160ff021916908315150217905550565b611b0e612661565b611b1757600080fd5b80600460006101000a81548173ffffffffffffffffffffffffffffffffffffffff021916908373ffffffffffffffffffffffffffffffffffffffff160217905550600660008273ffffffffffffffffffffffffffffffffffffffff1673ffffffffffffffffffffffffffffffffffffffff16815260200190815260200160002060009054906101000a90505050565b611bae612661565b611bb757600080fd5b611bc0816136ec565b50565b6000600260009054906101000a900460ff16905090565b6000611be4612661565b611bed57600080fd5b8273ffffffffffffffffffffffffffffffffffffffff1663a9059cbb33846040518363ffffffff1660e01b8152600401808373ffffffffffffffffffffffffffffffffffffffff16815260200182815260200192505050602060405180830381600087803b158015611c5e57600080fd5b505af1158015611c72573d6000803e3d6000fd5b505050506040513d6020811015611c8857600080fd5b8101908080519060200190929190505050905092915050565b6000600460149054906101000a900460ff1680611cc25750611cc1612661565b5b80611d165750600560003373ffffffffffffffffffffffffffffffffffffffff1673ffffffffffffffffffffffffffffffffffffffff16815260200190815260200160002060009054906101000a900460ff165b611d1f57600080fd5b611dae82601b60003373ffffffffffffffffffffffffffffffffffffffff1673ffffffffffffffffffffffffffffffffffffffff16815260200190815260200160002060008673ffffffffffffffffffffffffffffffffffffffff1673ffffffffffffffffffffffffffffffffffffffff168152602001908152602001600020546130f290919063ffffffff16565b601b60003373ffffffffffffffffffffffffffffffffffffffff1673ffffffffffffffffffffffffffffffffffffffff16815260200190815260200160002060008573ffffffffffffffffffffffffffffffffffffffff1673ffffffffffffffffffffffffffffffffffffffff168152602001908152602001600020819055508273ffffffffffffffffffffffffffffffffffffffff163373ffffffffffffffffffffffffffffffffffffffff167f8c5be1e5ebec7d5bd14f71427d1e84f3dd0314c0f7b2291e5b200ac8c7c3b925601b60003373ffffffffffffffffffffffffffffffffffffffff1673ffffffffffffffffffffffffffffffffffffffff16815260200190815260200160002060008773ffffffffffffffffffffffffffffffffffffffff1673ffffffffffffffffffffffffffffffffffffffff168152602001908152602001600020546040518082815260200191505060405180910390a36001905092915050565b611f2233612bf8565b611f77576040517f08c379a000000000000000000000000000000000000000000000000000000000815260040180806020018281038252603081526020018061477c6030913960400191505060405180910390fd5b611f8c816018546130f290919063ffffffff16565b6018819055506000196fffffffffffffffffffffffffffffffff166018541115611fcc576000196fffffffffffffffffffffffffffffffff166018819055505b611ffa6018546012600a0a63ee6b28000260001981611fe757fe5b066000190361317a90919063ffffffff16565b601981905550600460009054906101000a900473ffffffffffffffffffffffffffffffffffffffff1673ffffffffffffffffffffffffffffffffffffffff1663fff6cae96040518163ffffffff1660e01b8152600401600060405180830381600087803b15801561206a57600080fd5b505af115801561207e573d6000803e3d6000fd5b505050506120d481601a60008573ffffffffffffffffffffffffffffffffffffffff1673ffffffffffffffffffffffffffffffffffffffff168152602001908152602001600020546130f290919063ffffffff16565b601a60008473ffffffffffffffffffffffffffffffffffffffff1673ffffffffffffffffffffffffffffffffffffffff168152602001908152602001600020819055505050565b600460009054906101000a900473ffffffffffffffffffffffffffffffffffffffff1681565b60085481565b61214f612661565b61215857600080fd5b60004790508173ffffffffffffffffffffffffffffffffffffffff166108fc60648584028161218357fe5b049081150290604051600060405180830381858888f193505050501580156121af573d6000803e3d6000fd5b50505050565b60006121ce60195460165461317a90919063ffffffff16565b905090565b601560149054906101000a900460ff1681565b600061223c601954601a60008573ffffffffffffffffffffffffffffffffffffffff1673ffffffffffffffffffffffffffffffffffffffff1681526020019081526020016000205461317a90919063ffffffff16565b9050919050565b61224b612661565b61225457600080fd5b600260019054906101000a900473ffffffffffffffffffffffffffffffffffffffff1673ffffffffffffffffffffffffffffffffffffffff167ff8df31144d9c2f0f6b59d69b8b98abd5459d07f2742c4df920b25aae33c6482060405160405180910390a26000600260016101000a81548173ffffffffffffffffffffffffffffffffffffffff021916908373ffffffffffffffffffffffffffffffffffffffff160217905550565b612305612661565b61230e57600080fd5b6001600660008373ffffffffffffffffffffffffffffffffffffffff1673ffffffffffffffffffffffffffffffffffffffff16815260200190815260200160002060006101000a81548160ff02191690831515021790555050565b601560009054906101000a900473ffffffffffffffffffffffffffffffffffffffff1673ffffffffffffffffffffffffffffffffffffffff1663fff6cae96040518163ffffffff1660e01b8152600401600060405180830381600087803b1580156123d357600080fd5b505af11580156123e7573d6000803e3d6000fd5b50505050565b60006123f7612661565b61240057600080fd5b601760009054906101000a900460ff1615612483576040517f08c379a00000000000000000000000000000000000000000000000000000000081526004018080602001828103825260098152602001807f54727920616761696e000000000000000000000000000000000000000000000081525060200191505060405180910390fd5b60008214156124d057827f72725a3b1e5bd622d6bcd1339bb31279c351abe8f541ac7fd320f24e1b1641f26018546040518082815260200191505060405180910390a260185490506125f3565b60008212156124fc576124f1826000036018546136a290919063ffffffff16565b601881905550612518565b612511826018546130f290919063ffffffff16565b6018819055505b6000196fffffffffffffffffffffffffffffffff166018541115612552576000196fffffffffffffffffffffffffffffffff166018819055505b6125806018546012600a0a63ee6b2800026000198161256d57fe5b066000190361317a90919063ffffffff16565b6019819055506125ad61259e601e544261374690919063ffffffff16565b426136a290919063ffffffff16565b601d81905550827f72725a3b1e5bd622d6bcd1339bb31279c351abe8f541ac7fd320f24e1b1641f26018546040518082815260200191505060405180910390a260185490505b92915050565b601060009054906101000a900473ffffffffffffffffffffffffffffffffffffffff1681565b6000601760009054906101000a900460ff1615905090565b6000600260019054906101000a900473ffffffffffffffffffffffffffffffffffffffff16905090565b6000600260019054906101000a900473ffffffffffffffffffffffffffffffffffffffff1673ffffffffffffffffffffffffffffffffffffffff163373ffffffffffffffffffffffffffffffffffffffff1614905090565b6126c1612661565b6126ca57600080fd5b80601c60008473ffffffffffffffffffffffffffffffffffffffff1673ffffffffffffffffffffffffffffffffffffffff16815260200190815260200160002060006101000a81548160ff0219169083151502179055505050565b606060018054600181600116156101000203166002900480601f0160208091040260200160405190810160405280929190818152602001828054600181600116156101000203166002900480156127bd5780601f10612792576101008083540402835291602001916127bd565b820191906000526020600020905b8154815290600101906020018083116127a057829003601f168201915b5050505050905090565b60075481565b6127d5612661565b6127de57600080fd5b6127e781613767565b50565b6127f3336136ec565b565b6000600460149054906101000a900460ff16806128165750612815612661565b5b8061286a5750600560003373ffffffffffffffffffffffffffffffffffffffff1673ffffffffffffffffffffffffffffffffffffffff16815260200190815260200160002060009054906101000a900460ff165b61287357600080fd5b6000601b60003373ffffffffffffffffffffffffffffffffffffffff1673ffffffffffffffffffffffffffffffffffffffff16815260200190815260200160002060008573ffffffffffffffffffffffffffffffffffffffff1673ffffffffffffffffffffffffffffffffffffffff168152602001908152602001600020549050808310612982576000601b60003373ffffffffffffffffffffffffffffffffffffffff1673ffffffffffffffffffffffffffffffffffffffff16815260200190815260200160002060008673ffffffffffffffffffffffffffffffffffffffff1673ffffffffffffffffffffffffffffffffffffffff16815260200190815260200160002081905550612a16565b61299583826136a290919063ffffffff16565b601b60003373ffffffffffffffffffffffffffffffffffffffff1673ffffffffffffffffffffffffffffffffffffffff16815260200190815260200160002060008673ffffffffffffffffffffffffffffffffffffffff1673ffffffffffffffffffffffffffffffffffffffff168152602001908152602001600020819055505b8373ffffffffffffffffffffffffffffffffffffffff163373ffffffffffffffffffffffffffffffffffffffff167f8c5be1e5ebec7d5bd14f71427d1e84f3dd0314c0f7b2291e5b200ac8c7c3b925601b60003373ffffffffffffffffffffffffffffffffffffffff1673ffffffffffffffffffffffffffffffffffffffff16815260200190815260200160002060008873ffffffffffffffffffffffffffffffffffffffff1673ffffffffffffffffffffffffffffffffffffffff168152602001908152602001600020546040518082815260200191505060405180910390a3600191505092915050565b601560009054906101000a900473ffffffffffffffffffffffffffffffffffffffff1681565b600082600073ffffffffffffffffffffffffffffffffffffffff168173ffffffffffffffffffffffffffffffffffffffff161415612b6557600080fd5b600460149054906101000a900460ff1680612b845750612b83612661565b5b80612bd85750600560003373ffffffffffffffffffffffffffffffffffffffff1673ffffffffffffffffffffffffffffffffffffffff16815260200190815260200160002060009054906101000a900460ff165b612be157600080fd5b612bec33858561335f565b50600191505092915050565b6000612c0e8260036137c190919063ffffffff16565b9050919050565b6000612c54612c43601e54612c35601d54426136a290919063ffffffff16565b61374690919063ffffffff16565b601e546136a290919063ffffffff16565b905090565b60095481565b600f60009054906101000a900473ffffffffffffffffffffffffffffffffffffffff1681565b612c8d612661565b612c9657600080fd5b82601560146101000a81548160ff021916908315150217905550612cee82612ce0836012600a0a63ee6b28000260001981612ccd57fe5b066000190361317a90919063ffffffff16565b61389f90919063ffffffff16565b601681905550505050565b600460149054906101000a900460ff1681565b612d14612661565b612d1d57600080fd5b60005b84849050811015612d7e57612d7033868684818110612d3b57fe5b9050602002013573ffffffffffffffffffffffffffffffffffffffff16858585818110612d6457fe5b9050602002013561335f565b508080600101915050612d20565b5050505050565b6000600660008373ffffffffffffffffffffffffffffffffffffffff1673ffffffffffffffffffffffffffffffffffffffff16815260200190815260200160002060009054906101000a900460ff169050919050565b600080612e54601954601a6000601560009054906101000a900473ffffffffffffffffffffffffffffffffffffffff1673ffffffffffffffffffffffffffffffffffffffff1673ffffffffffffffffffffffffffffffffffffffff1681526020019081526020016000205461317a90919063ffffffff16565b9050612e95612e616119b7565b612e87612e7860028561389f90919063ffffffff16565b8661389f90919063ffffffff16565b61317a90919063ffffffff16565b915050919050565b612ea5612661565b612eae57600080fd5b6001600560008373ffffffffffffffffffffffffffffffffffffffff1673ffffffffffffffffffffffffffffffffffffffff16815260200190815260200160002060006101000a81548160ff02191690831515021790555050565b601160009054906101000a900473ffffffffffffffffffffffffffffffffffffffff1681565b612f37612661565b612f4057600080fd5b82600f60006101000a81548173ffffffffffffffffffffffffffffffffffffffff021916908373ffffffffffffffffffffffffffffffffffffffff16021790555081601060006101000a81548173ffffffffffffffffffffffffffffffffffffffff021916908373ffffffffffffffffffffffffffffffffffffffff16021790555080601160006101000a81548173ffffffffffffffffffffffffffffffffffffffff021916908373ffffffffffffffffffffffffffffffffffffffff160217905550505050565b6000601b60008473ffffffffffffffffffffffffffffffffffffffff1673ffffffffffffffffffffffffffffffffffffffff16815260200190815260200160002060008373ffffffffffffffffffffffffffffffffffffffff1673ffffffffffffffffffffffffffffffffffffffff16815260200190815260200160002054905092915050565b613097612661565b6130a057600080fd5b6130a981613925565b50565b601460009054906101000a900473ffffffffffffffffffffffffffffffffffffffff1681565b601c6020528060005260406000206000915054906101000a900460ff1681565b600080828401905083811015613170576040517f08c379a000000000000000000000000000000000000000000000000000000000815260040180806020018281038252601b8152602001807f536166654d6174683a206164646974696f6e206f766572666c6f77000000000081525060200191505060405180910390fd5b8091505092915050565b60006131bc83836040518060400160405280601a81526020017f536166654d6174683a206469766973696f6e206279207a65726f000000000000815250613a1f565b905092915050565b6131ce82826137c1565b15613241576040517f08c379a000000000000000000000000000000000000000000000000000000000815260040180806020018281038252601f8152602001807f526f6c65733a206163636f756e7420616c72656164792068617320726f6c650081525060200191505060405180910390fd5b60018260000160008373ffffffffffffffffffffffffffffffffffffffff1673ffffffffffffffffffffffffffffffffffffffff16815260200190815260200160002060006101000a81548160ff0219169083151502179055505050565b600083831115829061334c576040517f08c379a00000000000000000000000000000000000000000000000000000000081526004018080602001828103825283818151815260200191508051906020019080838360005b838110156133115780820151818401526020810190506132f6565b50505050905090810190601f16801561333e5780820380516001836020036101000a031916815260200191505b509250505060405180910390fd5b5060008385039050809150509392505050565b6000601c60008573ffffffffffffffffffffffffffffffffffffffff1673ffffffffffffffffffffffffffffffffffffffff16815260200190815260200160002060009054906101000a900460ff161580156134055750601c60008473ffffffffffffffffffffffffffffffffffffffff1673ffffffffffffffffffffffffffffffffffffffff16815260200190815260200160002060009054906101000a900460ff16155b613477576040517f08c379a000000000000000000000000000000000000000000000000000000000815260040180806020018281038252600c8152602001807f696e5f626c61636b6c697374000000000000000000000000000000000000000081525060200191505060405180910390fd5b601760009054906101000a900460ff161561349e57613497848484613ae5565b905061369b565b60006134b56019548461389f90919063ffffffff16565b90506134bf613c35565b156134cd576134cc613d0c565b5b61351f81601a60008873ffffffffffffffffffffffffffffffffffffffff1673ffffffffffffffffffffffffffffffffffffffff168152602001908152602001600020546136a290919063ffffffff16565b601a60008773ffffffffffffffffffffffffffffffffffffffff1673ffffffffffffffffffffffffffffffffffffffff16815260200190815260200160002081905550600061356e86866143e8565b6135785781613584565b6135838686846144f1565b5b90506135d881601a60008873ffffffffffffffffffffffffffffffffffffffff1673ffffffffffffffffffffffffffffffffffffffff168152602001908152602001600020546130f290919063ffffffff16565b601a60008773ffffffffffffffffffffffffffffffffffffffff1673ffffffffffffffffffffffffffffffffffffffff168152602001908152602001600020819055508473ffffffffffffffffffffffffffffffffffffffff168673ffffffffffffffffffffffffffffffffffffffff167fddf252ad1be2c89b69c2b068fc378daa952ba7f163c4a11628f55a4df523b3ef61367f6019548561317a90919063ffffffff16565b6040518082815260200191505060405180910390a36001925050505b9392505050565b60006136e483836040518060400160405280601e81526020017f536166654d6174683a207375627472616374696f6e206f766572666c6f77000081525061329f565b905092915050565b6137008160036146be90919063ffffffff16565b8073ffffffffffffffffffffffffffffffffffffffff167fe94479a9f7e1952cc78f2d6baab678adc1b772d936c6583def489e524cb6669260405160405180910390a250565b60008082141561375557600080fd5b81838161375e57fe5b06905092915050565b61377b8160036131c490919063ffffffff16565b8073ffffffffffffffffffffffffffffffffffffffff167f6ae172837ea30b801fbfcdd4108aa1d5bf8ff775444fd70256b44e6bf3dfc3f660405160405180910390a250565b60008073ffffffffffffffffffffffffffffffffffffffff168273ffffffffffffffffffffffffffffffffffffffff161415613848576040517f08c379a00000000000000000000000000000000000000000000000000000000081526004018080602001828103825260228152602001806147ee6022913960400191505060405180910390fd5b8260000160008373ffffffffffffffffffffffffffffffffffffffff1673ffffffffffffffffffffffffffffffffffffffff16815260200190815260200160002060009054906101000a900460ff16905092915050565b6000808314156138b2576000905061391f565b60008284029050828482816138c357fe5b041461391a576040517f08c379a00000000000000000000000000000000000000000000000000000000081526004018080602001828103825260218152602001806147cd6021913960400191505060405180910390fd5b809150505b92915050565b600073ffffffffffffffffffffffffffffffffffffffff168173ffffffffffffffffffffffffffffffffffffffff16141561395f57600080fd5b8073ffffffffffffffffffffffffffffffffffffffff16600260019054906101000a900473ffffffffffffffffffffffffffffffffffffffff1673ffffffffffffffffffffffffffffffffffffffff167f8be0079c531659141344cd1fd0a4f28419497f9722a3daafe3b4186f6b6457e060405160405180910390a380600260016101000a81548173ffffffffffffffffffffffffffffffffffffffff021916908373ffffffffffffffffffffffffffffffffffffffff16021790555050565b60008083118290613acb576040517f08c379a00000000000000000000000000000000000000000000000000000000081526004018080602001828103825283818151815260200191508051906020019080838360005b83811015613a90578082015181840152602081019050613a75565b50505050905090810190601f168015613abd5780820380516001836020036101000a031916815260200191505b509250505060405180910390fd5b506000838581613ad757fe5b049050809150509392505050565b600080613afd6019548461389f90919063ffffffff16565b9050613b5181601a60008873ffffffffffffffffffffffffffffffffffffffff1673ffffffffffffffffffffffffffffffffffffffff168152602001908152602001600020546136a290919063ffffffff16565b601a60008773ffffffffffffffffffffffffffffffffffffffff1673ffffffffffffffffffffffffffffffffffffffff16815260200190815260200160002081905550613be681601a60008773ffffffffffffffffffffffffffffffffffffffff1673ffffffffffffffffffffffffffffffffffffffff168152602001908152602001600020546130f290919063ffffffff16565b601a60008673ffffffffffffffffffffffffffffffffffffffff1673ffffffffffffffffffffffffffffffffffffffff1681526020019081526020016000208190555060019150509392505050565b6000601560009054906101000a900473ffffffffffffffffffffffffffffffffffffffff1673ffffffffffffffffffffffffffffffffffffffff163373ffffffffffffffffffffffffffffffffffffffff1614158015613ca25750601760009054906101000a900460ff16155b8015613cba5750601560149054906101000a900460ff165b8015613d075750601654601a60003073ffffffffffffffffffffffffffffffffffffffff1673ffffffffffffffffffffffffffffffffffffffff1681526020019081526020016000205410155b905090565b6001601760006101000a81548160ff0219169083151502179055506000613d3760125460135461172a565b613d4357600754613d46565b60005b90506000613d9e601954601a60003073ffffffffffffffffffffffffffffffffffffffff1673ffffffffffffffffffffffffffffffffffffffff1681526020019081526020016000205461317a90919063ffffffff16565b90506000613ddc6002613dce600b54613dc0878761389f90919063ffffffff16565b61317a90919063ffffffff16565b61317a90919063ffffffff16565b90506000613df382846136a290919063ffffffff16565b90506060600267ffffffffffffffff81118015613e0f57600080fd5b50604051908082528060200260200182016040528015613e3e5781602001602082028036833780820191505090505b5090503081600081518110613e4f57fe5b602002602001019073ffffffffffffffffffffffffffffffffffffffff16908173ffffffffffffffffffffffffffffffffffffffff1681525050601460009054906101000a900473ffffffffffffffffffffffffffffffffffffffff1673ffffffffffffffffffffffffffffffffffffffff1663ad5c46486040518163ffffffff1660e01b815260040160206040518083038186803b158015613ef157600080fd5b505afa158015613f05573d6000803e3d6000fd5b505050506040513d6020811015613f1b57600080fd5b810190808051906020019092919050505081600181518110613f3957fe5b602002602001019073ffffffffffffffffffffffffffffffffffffffff16908173ffffffffffffffffffffffffffffffffffffffff16815250506000479050601460009054906101000a900473ffffffffffffffffffffffffffffffffffffffff1673ffffffffffffffffffffffffffffffffffffffff1663791ac9478460008530426040518663ffffffff1660e01b815260040180868152602001858152602001806020018473ffffffffffffffffffffffffffffffffffffffff168152602001838152602001828103825285818151815260200191508051906020019060200280838360005b8381101561403c578082015181840152602081019050614021565b505050509050019650505050505050600060405180830381600087803b15801561406557600080fd5b505af1158015614079573d6000803e3d6000fd5b50505050600061409282476136a290919063ffffffff16565b905060006140be6140ad60028a61317a90919063ffffffff16565b600b546136a290919063ffffffff16565b905060006140fa60026140ec846140de8d8861389f90919063ffffffff16565b61317a90919063ffffffff16565b61317a90919063ffffffff16565b90506000614125836141176009548761389f90919063ffffffff16565b61317a90919063ffffffff16565b90506000614150846141426008548861389f90919063ffffffff16565b61317a90919063ffffffff16565b90506000601060009054906101000a900473ffffffffffffffffffffffffffffffffffffffff1673ffffffffffffffffffffffffffffffffffffffff168261753090604051806000019050600060405180830381858888f193505050503d80600081146141d9576040519150601f19603f3d011682016040523d82523d6000602084013e6141de565b606091505b50509050601160009054906101000a900473ffffffffffffffffffffffffffffffffffffffff1673ffffffffffffffffffffffffffffffffffffffff168361753090604051806000019050600060405180830381858888f193505050503d8060008114614267576040519150601f19603f3d011682016040523d82523d6000602084013e61426c565b606091505b5050809150506000905060008a11156143bf57601460009054906101000a900473ffffffffffffffffffffffffffffffffffffffff1673ffffffffffffffffffffffffffffffffffffffff1663f305d71985308d600080600f60009054906101000a900473ffffffffffffffffffffffffffffffffffffffff16426040518863ffffffff1660e01b8152600401808773ffffffffffffffffffffffffffffffffffffffff1681526020018681526020018581526020018481526020018373ffffffffffffffffffffffffffffffffffffffff16815260200182815260200196505050505050506060604051808303818588803b15801561436b57600080fd5b505af115801561437f573d6000803e3d6000fd5b50505050506040513d606081101561439657600080fd5b810190808051906020019092919080519060200190929190805190602001909291905050505050505b5050505050505050505050506000601760006101000a81548160ff021916908315150217905550565b60008273ffffffffffffffffffffffffffffffffffffffff16601560009054906101000a900473ffffffffffffffffffffffffffffffffffffffff1673ffffffffffffffffffffffffffffffffffffffff16148061449357508173ffffffffffffffffffffffffffffffffffffffff16601560009054906101000a900473ffffffffffffffffffffffffffffffffffffffff1673ffffffffffffffffffffffffffffffffffffffff16145b80156144e95750600660008473ffffffffffffffffffffffffffffffffffffffff1673ffffffffffffffffffffffffffffffffffffffff16815260200190815260200160002060009054906101000a900460ff16155b905092915050565b600080600b549050601560009054906101000a900473ffffffffffffffffffffffffffffffffffffffff1673ffffffffffffffffffffffffffffffffffffffff168473ffffffffffffffffffffffffffffffffffffffff16141561456757614564600a54826130f290919063ffffffff16565b90505b6000614590600c54614582848761389f90919063ffffffff16565b61317a90919063ffffffff16565b90506145e481601a60003073ffffffffffffffffffffffffffffffffffffffff1673ffffffffffffffffffffffffffffffffffffffff168152602001908152602001600020546130f290919063ffffffff16565b601a60003073ffffffffffffffffffffffffffffffffffffffff1673ffffffffffffffffffffffffffffffffffffffff168152602001908152602001600020819055503073ffffffffffffffffffffffffffffffffffffffff168673ffffffffffffffffffffffffffffffffffffffff167fddf252ad1be2c89b69c2b068fc378daa952ba7f163c4a11628f55a4df523b3ef61468b6019548561317a90919063ffffffff16565b6040518082815260200191505060405180910390a36146b381856136a290919063ffffffff16565b925050509392505050565b6146c882826137c1565b61471d576040517f08c379a00000000000000000000000000000000000000000000000000000000081526004018080602001828103825260218152602001806147ac6021913960400191505060405180910390fd5b60008260000160008373ffffffffffffffffffffffffffffffffffffffff1673ffffffffffffffffffffffffffffffffffffffff16815260200190815260200160002060006101000a81548160ff021916908315150217905550505056fe4d696e746572526f6c653a2063616c6c657220646f6573206e6f74206861766520746865204d696e74657220726f6c65526f6c65733a206163636f756e7420646f6573206e6f74206861766520726f6c65536166654d6174683a206d756c7469706c69636174696f6e206f766572666c6f77526f6c65733a206163636f756e7420697320746865207a65726f2061646472657373a2646970667358221220099edb125f90faa95dff495de007f33f7bf97597ec451a4d0ed0ca9802e01a8d64736f6c63430007040033526f6c65733a206163636f756e7420697320746865207a65726f2061646472657373",
  "immutableReferences": {},
  "source": "pragma solidity ^0.7.4;\r\n\r\nlibrary SafeMathInt {\r\n    int256 private constant MIN_INT256 = int256(1) << 255;\r\n    int256 private constant MAX_INT256 = ~(int256(1) << 255);\r\n\r\n    function mul(int256 a, int256 b) internal pure returns (int256) {\r\n        int256 c = a * b;\r\n\r\n        require(c != MIN_INT256 || (a & MIN_INT256) != (b & MIN_INT256));\r\n        require((b == 0) || (c / b == a));\r\n        return c;\r\n    }\r\n\r\n    function div(int256 a, int256 b) internal pure returns (int256) {\r\n        require(b != -1 || a != MIN_INT256);\r\n\r\n        return a / b;\r\n    }\r\n\r\n    function sub(int256 a, int256 b) internal pure returns (int256) {\r\n        int256 c = a - b;\r\n        require((b >= 0 && c <= a) || (b < 0 && c > a));\r\n        return c;\r\n    }\r\n\r\n    function add(int256 a, int256 b) internal pure returns (int256) {\r\n        int256 c = a + b;\r\n        require((b >= 0 && c >= a) || (b < 0 && c < a));\r\n        return c;\r\n    }\r\n\r\n    function abs(int256 a) internal pure returns (int256) {\r\n        require(a != MIN_INT256);\r\n        return a < 0 ? -a : a;\r\n    }\r\n}\r\n\r\ninterface IERC20 {\r\n    function totalSupply() external view returns (uint256);\r\n\r\n    function balanceOf(address who) external view returns (uint256);\r\n\r\n    function allowance(address owner, address spender)\r\n        external\r\n        view\r\n        returns (uint256);\r\n\r\n    function transfer(address to, uint256 value) external returns (bool);\r\n\r\n    function approve(address spender, uint256 value) external returns (bool);\r\n\r\n    function transferFrom(\r\n        address from,\r\n        address to,\r\n        uint256 value\r\n    ) external returns (bool);\r\n\r\n    event Transfer(address indexed from, address indexed to, uint256 value);\r\n\r\n    event Approval(\r\n        address indexed owner,\r\n        address indexed spender,\r\n        uint256 value\r\n    );\r\n}\r\n\r\nlibrary SafeMath {\r\n    function add(uint256 a, uint256 b) internal pure returns (uint256) {\r\n        uint256 c = a + b;\r\n        require(c >= a, \"SafeMath: addition overflow\");\r\n\r\n        return c;\r\n    }\r\n\r\n    function sub(uint256 a, uint256 b) internal pure returns (uint256) {\r\n        return sub(a, b, \"SafeMath: subtraction overflow\");\r\n    }\r\n\r\n    function sub(\r\n        uint256 a,\r\n        uint256 b,\r\n        string memory errorMessage\r\n    ) internal pure returns (uint256) {\r\n        require(b <= a, errorMessage);\r\n        uint256 c = a - b;\r\n\r\n        return c;\r\n    }\r\n\r\n    function mul(uint256 a, uint256 b) internal pure returns (uint256) {\r\n        if (a == 0) {\r\n            return 0;\r\n        }\r\n\r\n        uint256 c = a * b;\r\n        require(c / a == b, \"SafeMath: multiplication overflow\");\r\n\r\n        return c;\r\n    }\r\n\r\n    function div(uint256 a, uint256 b) internal pure returns (uint256) {\r\n        return div(a, b, \"SafeMath: division by zero\");\r\n    }\r\n\r\n    function div(\r\n        uint256 a,\r\n        uint256 b,\r\n        string memory errorMessage\r\n    ) internal pure returns (uint256) {\r\n        require(b > 0, errorMessage);\r\n        uint256 c = a / b;\r\n\r\n        return c;\r\n    }\r\n\r\n    function mod(uint256 a, uint256 b) internal pure returns (uint256) {\r\n        require(b != 0);\r\n        return a % b;\r\n    }\r\n}\r\n\r\ninterface InterfaceLP {\r\n    function sync() external;\r\n}\r\n\r\nlibrary Roles {\r\n    struct Role {\r\n        mapping (address => bool) bearer;\r\n    }\r\n\r\n    /**\r\n     * @dev Give an account access to this role.\r\n     */\r\n    function add(Role storage role, address account) internal {\r\n        require(!has(role, account), \"Roles: account already has role\");\r\n        role.bearer[account] = true;\r\n    }\r\n\r\n    /**\r\n     * @dev Remove an account's access to this role.\r\n     */\r\n    function remove(Role storage role, address account) internal {\r\n        require(has(role, account), \"Roles: account does not have role\");\r\n        role.bearer[account] = false;\r\n    }\r\n\r\n    /**\r\n     * @dev Check if an account has this role.\r\n     * @return bool\r\n     */\r\n    function has(Role storage role, address account) internal view returns (bool) {\r\n        require(account != address(0), \"Roles: account is the zero address\");\r\n        return role.bearer[account];\r\n    }\r\n}\r\n\r\ncontract MinterRole {\r\n    using Roles for Roles.Role;\r\n\r\n    event MinterAdded(address indexed account);\r\n    event MinterRemoved(address indexed account);\r\n\r\n    Roles.Role private _minters;\r\n\r\n    constructor () {\r\n        _addMinter(msg.sender);\r\n    }\r\n\r\n    modifier onlyMinter() {\r\n        require(isMinter(msg.sender), \"MinterRole: caller does not have the Minter role\");\r\n        _;\r\n    }\r\n\r\n    function isMinter(address account) public view returns (bool) {\r\n        return _minters.has(account);\r\n    }\r\n\r\n    function renounceMinter() public {\r\n        _removeMinter(msg.sender);\r\n    }\r\n\r\n    function _addMinter(address account) internal {\r\n        _minters.add(account);\r\n        emit MinterAdded(account);\r\n    }\r\n\r\n    function _removeMinter(address account) internal {\r\n        _minters.remove(account);\r\n        emit MinterRemoved(account);\r\n    }\r\n}\r\n\r\nabstract contract ERC20Detailed is IERC20 {\r\n    string private _name;\r\n    string private _symbol;\r\n    uint8 private _decimals;\r\n\r\n    constructor(\r\n        string memory name,\r\n        string memory symbol,\r\n        uint8 decimals\r\n    ) {\r\n        _name = name;\r\n        _symbol = symbol;\r\n        _decimals = decimals;\r\n    }\r\n\r\n    function name() public view returns (string memory) {\r\n        return _name;\r\n    }\r\n\r\n    function symbol() public view returns (string memory) {\r\n        return _symbol;\r\n    }\r\n\r\n    function decimals() public view returns (uint8) {\r\n        return _decimals;\r\n    }\r\n}\r\n\r\ninterface IDEXRouter {\r\n    function factory() external pure returns (address);\r\n\r\n    function WETH() external pure returns (address);\r\n\r\n    function addLiquidity(\r\n        address tokenA,\r\n        address tokenB,\r\n        uint256 amountADesired,\r\n        uint256 amountBDesired,\r\n        uint256 amountAMin,\r\n        uint256 amountBMin,\r\n        address to,\r\n        uint256 deadline\r\n    )\r\n        external\r\n        returns (\r\n            uint256 amountA,\r\n            uint256 amountB,\r\n            uint256 liquidity\r\n        );\r\n\r\n    function addLiquidityETH(\r\n        address token,\r\n        uint256 amountTokenDesired,\r\n        uint256 amountTokenMin,\r\n        uint256 amountETHMin,\r\n        address to,\r\n        uint256 deadline\r\n    )\r\n        external\r\n        payable\r\n        returns (\r\n            uint256 amountToken,\r\n            uint256 amountETH,\r\n            uint256 liquidity\r\n        );\r\n\r\n    function swapExactTokensForTokensSupportingFeeOnTransferTokens(\r\n        uint256 amountIn,\r\n        uint256 amountOutMin,\r\n        address[] calldata path,\r\n        address to,\r\n        uint256 deadline\r\n    ) external;\r\n\r\n    function swapExactETHForTokensSupportingFeeOnTransferTokens(\r\n        uint256 amountOutMin,\r\n        address[] calldata path,\r\n        address to,\r\n        uint256 deadline\r\n    ) external payable;\r\n\r\n    function swapExactTokensForETHSupportingFeeOnTransferTokens(\r\n        uint256 amountIn,\r\n        uint256 amountOutMin,\r\n        address[] calldata path,\r\n        address to,\r\n        uint256 deadline\r\n    ) external;\r\n}\r\n\r\ninterface IDEXFactory {\r\n    function createPair(address tokenA, address tokenB)\r\n        external\r\n        returns (address pair);\r\n}\r\n\r\ncontract Ownable {\r\n    address private _owner;\r\n\r\n    event OwnershipRenounced(address indexed previousOwner);\r\n\r\n    event OwnershipTransferred(\r\n        address indexed previousOwner,\r\n        address indexed newOwner\r\n    );\r\n\r\n    constructor() {\r\n        _owner = msg.sender;\r\n    }\r\n\r\n    function owner() public view returns (address) {\r\n        return _owner;\r\n    }\r\n\r\n    modifier onlyOwner() {\r\n        require(isOwner());\r\n        _;\r\n    }\r\n\r\n    function isOwner() public view returns (bool) {\r\n        return msg.sender == _owner;\r\n    }\r\n\r\n    function renounceOwnership() public onlyOwner {\r\n        emit OwnershipRenounced(_owner);\r\n        _owner = address(0);\r\n    }\r\n\r\n    function transferOwnership(address newOwner) public onlyOwner {\r\n        _transferOwnership(newOwner);\r\n    }\r\n\r\n    function _transferOwnership(address newOwner) internal {\r\n        require(newOwner != address(0));\r\n        emit OwnershipTransferred(_owner, newOwner);\r\n        _owner = newOwner;\r\n    }\r\n}\r\n\r\ncontract ERIS is ERC20Detailed, Ownable, MinterRole {\r\n    using SafeMath for uint256;\r\n    using SafeMathInt for int256;\r\n\r\n    event LogRebase(uint256 indexed epoch, uint256 totalSupply);\r\n\r\n    InterfaceLP public pairContract;\r\n\r\n    bool public initialDistributionFinished;\r\n\r\n    mapping(address => bool) allowTransfer;\r\n    mapping(address => bool) _isFeeExempt;\r\n\r\n    modifier initialDistributionLock() {\r\n        require(\r\n            initialDistributionFinished ||\r\n                isOwner() ||\r\n                allowTransfer[msg.sender]\r\n        );\r\n        _;\r\n    }\r\n\r\n    modifier validRecipient(address to) {\r\n        require(to != address(0x0));\r\n        _;\r\n    }\r\n\r\n    uint256 private constant DECIMALS = 18;\r\n    uint256 private constant MAX_UINT256 = ~uint256(0);\r\n\r\n    uint256 private constant INITIAL_FRAGMENTS_SUPPLY = 4 * 10**9 * 10**DECIMALS;\r\n\r\n    uint256 public liquidityFee = 5;\r\n    uint256 public Treasury = 3;\r\n    uint256 public RiskFreeValue = 5;\r\n    uint256 public sellFee = 5;\r\n    uint256 public totalFee =\r\n        liquidityFee.add(Treasury).add(RiskFreeValue);\r\n    uint256 public feeDenominator = 100;\r\n\r\n    address DEAD = 0x000000000000000000000000000000000000dEaD;\r\n    address ZERO = 0x0000000000000000000000000000000000000000;\r\n\r\n    address public autoLiquidityReceiver;\r\n    address public TreasuryReceiver;\r\n    address public RiskFreeValueReceiver;\r\n\r\n    uint256 targetLiquidity = 50;\r\n    uint256 targetLiquidityDenominator = 100;\r\n\r\n    IDEXRouter public router;\r\n    address public pair = 0xe3aA453FEFA2eE7305b70DF5FA6129F90C18c04e;\r\n\r\n    bool public swapEnabled = true;\r\n    uint256 private gonSwapThreshold = (TOTAL_GONS * 10) / 10000;\r\n    bool inSwap;\r\n    modifier swapping() {\r\n        inSwap = true;\r\n        _;\r\n        inSwap = false;\r\n    }\r\n\r\n    uint256 private constant TOTAL_GONS =\r\n        MAX_UINT256 - (MAX_UINT256 % INITIAL_FRAGMENTS_SUPPLY);\r\n\r\n    uint256 private constant MAX_SUPPLY = ~uint128(0);\r\n\r\n    uint256 private _totalSupply;\r\n    uint256 private _gonsPerFragment;\r\n    mapping(address => uint256) private _gonBalances;\r\n\r\n    mapping(address => mapping(address => uint256)) private _allowedFragments;\r\n    mapping(address => bool) public blacklist;\r\n\r\n    uint256 private lastRebaseTimestampSec;\r\n    uint256 private minRebaseTimeIntervalSec;\r\n\r\n    constructor() ERC20Detailed(\"ERIS Auto Staking Token\", \"ERIS\", uint8(DECIMALS)) {\r\n        router = IDEXRouter(0x10ED43C718714eb63d5aA57B78B54704E256024E); //Sushi 0x1b02dA8Cb0d097eB8D57A175b88c7D8b47997506 // Cake 0x10ED43C718714eb63d5aA57B78B54704E256024E\r\n\r\n        // pair = IDEXFactory(router.factory()).createPair(\r\n        //     router.WETH(),\r\n        //     address(this)\r\n        // );\r\n\r\n        autoLiquidityReceiver = 0xfa1D544D46c7c50d7B7d7D2e85915F1b129a9386;\r\n        TreasuryReceiver = 0x27e0C3c11F2184C323d8c16129b3A26CC5c7b382;\r\n        RiskFreeValueReceiver = 0x00dE99c90E8971D3E1c9cBA724381B537F6e88C1;\r\n\r\n        _allowedFragments[address(this)][address(router)] = uint256(-1);\r\n        pairContract = InterfaceLP(pair);\r\n\r\n        _totalSupply = INITIAL_FRAGMENTS_SUPPLY;\r\n        _gonBalances[TreasuryReceiver] = TOTAL_GONS;\r\n        _gonsPerFragment = TOTAL_GONS.div(_totalSupply);\r\n\r\n        initialDistributionFinished = false;\r\n        _isFeeExempt[TreasuryReceiver] = true;\r\n        _isFeeExempt[address(this)] = true;\r\n\r\n        _transferOwnership(TreasuryReceiver);\r\n        lastRebaseTimestampSec      = 0;\r\n        minRebaseTimeIntervalSec    = 1800; // 30 min\r\n        emit Transfer(address(0x0), TreasuryReceiver, _totalSupply);\r\n    }\r\n\r\n    function updateBlacklist(address _user, bool _flag) public onlyOwner{\r\n        blacklist[_user] = _flag;\r\n    }\r\n\r\n    function rebase(uint256 epoch, int256 supplyDelta)\r\n        external\r\n        onlyOwner\r\n        returns (uint256)\r\n    {\r\n        require(!inSwap, \"Try again\");\r\n        if (supplyDelta == 0) {\r\n            emit LogRebase(epoch, _totalSupply);\r\n            return _totalSupply;\r\n        }\r\n\r\n        if (supplyDelta < 0) {\r\n            _totalSupply = _totalSupply.sub(uint256(-supplyDelta));\r\n        } else {\r\n            _totalSupply = _totalSupply.add(uint256(supplyDelta));\r\n        }\r\n\r\n        if (_totalSupply > MAX_SUPPLY) {\r\n            _totalSupply = MAX_SUPPLY;\r\n        }\r\n\r\n        _gonsPerFragment = TOTAL_GONS.div(_totalSupply);\r\n        // pairContract.sync(); //[ERIS]\r\n\r\n        lastRebaseTimestampSec = block.timestamp.sub(block.timestamp.mod(minRebaseTimeIntervalSec));\r\n        emit LogRebase(epoch, _totalSupply);\r\n        return _totalSupply;\r\n    }\r\n\r\n    function remainToRabase() external view returns(uint256) {\r\n        return minRebaseTimeIntervalSec.sub(block.timestamp.sub(lastRebaseTimestampSec).mod(minRebaseTimeIntervalSec));\r\n    }\r\n\r\n    function totalSupply() external view override returns (uint256) {\r\n        return _totalSupply;\r\n    }\r\n\r\n    function transfer(address to, uint256 value)\r\n        external\r\n        override\r\n        validRecipient(to)\r\n        initialDistributionLock\r\n        returns (bool)\r\n    {\r\n        _transferFrom(msg.sender, to, value);\r\n        return true;\r\n    }\r\n\r\n    function setLP(address _address) external onlyOwner {\r\n        pairContract = InterfaceLP(_address);\r\n        _isFeeExempt[_address];\r\n    }\r\n\r\n    function allowance(address owner_, address spender)\r\n        external\r\n        view\r\n        override\r\n        returns (uint256)\r\n    {\r\n        return _allowedFragments[owner_][spender];\r\n    }\r\n\r\n    function balanceOf(address who) external view override returns (uint256) {\r\n        return _gonBalances[who].div(_gonsPerFragment);\r\n    }\r\n\r\n    function _basicTransfer(\r\n        address from,\r\n        address to,\r\n        uint256 amount\r\n    ) internal returns (bool) {\r\n        uint256 gonAmount = amount.mul(_gonsPerFragment);\r\n        _gonBalances[from] = _gonBalances[from].sub(gonAmount);\r\n        _gonBalances[to] = _gonBalances[to].add(gonAmount);\r\n        return true;\r\n    }\r\n\r\n    function _transferFrom(\r\n        address sender,\r\n        address recipient,\r\n        uint256 amount\r\n    ) internal returns (bool) {\r\n        require(!blacklist[sender] && !blacklist[recipient], 'in_blacklist');\r\n        if (inSwap) {\r\n            return _basicTransfer(sender, recipient, amount);\r\n        }\r\n\r\n        uint256 gonAmount = amount.mul(_gonsPerFragment);\r\n\r\n        if (shouldSwapBack()) {\r\n            swapBack();\r\n        }\r\n\r\n        _gonBalances[sender] = _gonBalances[sender].sub(gonAmount);\r\n\r\n        uint256 gonAmountReceived = \r\n        shouldTakeFee(sender, recipient)\r\n            ? takeFee(sender, recipient, gonAmount)\r\n            : gonAmount;\r\n        _gonBalances[recipient] = _gonBalances[recipient].add(\r\n            gonAmountReceived\r\n        );\r\n\r\n        emit Transfer(\r\n            sender,\r\n            recipient,\r\n            gonAmountReceived.div(_gonsPerFragment)\r\n        );\r\n        return true;\r\n    }\r\n\r\n    function transferFrom(\r\n        address from,\r\n        address to,\r\n        uint256 value\r\n    ) external override validRecipient(to) returns (bool) {\r\n        if (_allowedFragments[from][msg.sender] != uint256(-1)) {\r\n            _allowedFragments[from][msg.sender] = _allowedFragments[from][\r\n                msg.sender\r\n            ].sub(value, \"Insufficient Allowance\");\r\n        }\r\n\r\n        _transferFrom(from, to, value);\r\n        return true;\r\n    }\r\n\r\n    function swapBack() internal swapping {\r\n        uint256 dynamicLiquidityFee = isOverLiquified(\r\n            targetLiquidity,\r\n            targetLiquidityDenominator\r\n        )\r\n            ? 0\r\n            : liquidityFee;\r\n        uint256 contractTokenBalance = _gonBalances[address(this)].div(\r\n            _gonsPerFragment\r\n        );\r\n        uint256 amountToLiquify = contractTokenBalance\r\n            .mul(dynamicLiquidityFee)\r\n            .div(totalFee)\r\n            .div(2);\r\n        uint256 amountToSwap = contractTokenBalance.sub(amountToLiquify);\r\n\r\n        address[] memory path = new address[](2);\r\n        path[0] = address(this);\r\n        path[1] = router.WETH();\r\n\r\n        uint256 balanceBefore = address(this).balance;\r\n\r\n        router.swapExactTokensForETHSupportingFeeOnTransferTokens(\r\n            amountToSwap,\r\n            0,\r\n            path,\r\n            address(this),\r\n            block.timestamp\r\n        );\r\n\r\n        uint256 amountETH = address(this).balance.sub(balanceBefore);\r\n\r\n        uint256 totalETHFee = totalFee.sub(dynamicLiquidityFee.div(2));\r\n\r\n        uint256 amountETHLiquidity = amountETH\r\n            .mul(dynamicLiquidityFee)\r\n            .div(totalETHFee)\r\n            .div(2);\r\n        uint256 amountETHRiskFreeValue = amountETH.mul(RiskFreeValue).div(totalETHFee);\r\n        uint256 amountETHTreasury = amountETH.mul(Treasury).div(\r\n            totalETHFee\r\n        );\r\n\r\n        (bool success, ) = payable(TreasuryReceiver).call{\r\n            value: amountETHTreasury,\r\n            gas: 30000\r\n        }(\"\");\r\n        (success, ) = payable(RiskFreeValueReceiver).call{\r\n            value: amountETHRiskFreeValue,\r\n            gas: 30000\r\n        }(\"\");\r\n\r\n        success = false;\r\n\r\n        if (amountToLiquify > 0) {\r\n            router.addLiquidityETH{value: amountETHLiquidity}(\r\n                address(this),\r\n                amountToLiquify,\r\n                0,\r\n                0,\r\n                autoLiquidityReceiver,\r\n                block.timestamp\r\n            );\r\n        }\r\n    }\r\n\r\n    function takeFee(address sender, address recipient, uint256 gonAmount)\r\n        internal\r\n        returns (uint256)\r\n    {\r\n        uint256 _totalFee = totalFee;\r\n        if(recipient == pair) _totalFee = _totalFee.add(sellFee);\r\n\r\n        uint256 feeAmount = gonAmount.mul(_totalFee).div(feeDenominator);\r\n\r\n        _gonBalances[address(this)] = _gonBalances[address(this)].add(\r\n            feeAmount\r\n        );\r\n        emit Transfer(sender, address(this), feeAmount.div(_gonsPerFragment));\r\n\r\n        return gonAmount.sub(feeAmount);\r\n    }\r\n    \r\n    function decreaseAllowance(address spender, uint256 subtractedValue)\r\n        external\r\n        initialDistributionLock\r\n        returns (bool)\r\n    {\r\n        uint256 oldValue = _allowedFragments[msg.sender][spender];\r\n        if (subtractedValue >= oldValue) {\r\n            _allowedFragments[msg.sender][spender] = 0;\r\n        } else {\r\n            _allowedFragments[msg.sender][spender] = oldValue.sub(\r\n                subtractedValue\r\n            );\r\n        }\r\n        emit Approval(\r\n            msg.sender,\r\n            spender,\r\n            _allowedFragments[msg.sender][spender]\r\n        );\r\n        return true;\r\n    }\r\n\r\n    function increaseAllowance(address spender, uint256 addedValue)\r\n        external\r\n        initialDistributionLock\r\n        returns (bool)\r\n    {\r\n        _allowedFragments[msg.sender][spender] = _allowedFragments[msg.sender][\r\n            spender\r\n        ].add(addedValue);\r\n        emit Approval(\r\n            msg.sender,\r\n            spender,\r\n            _allowedFragments[msg.sender][spender]\r\n        );\r\n        return true;\r\n    }\r\n\r\n    function approve(address spender, uint256 value)\r\n        external\r\n        override\r\n        initialDistributionLock\r\n        returns (bool)\r\n    {\r\n        _allowedFragments[msg.sender][spender] = value;\r\n        emit Approval(msg.sender, spender, value);\r\n        return true;\r\n    }\r\n\r\n    function checkFeeExempt(address _addr) external view returns (bool) {\r\n        return _isFeeExempt[_addr];\r\n    }\r\n\r\n    function setInitialDistributionFinished() external onlyOwner {\r\n        initialDistributionFinished = true;\r\n    }\r\n\r\n    function enableTransfer(address _addr) external onlyOwner {\r\n        allowTransfer[_addr] = true;\r\n    }\r\n\r\n    function setFeeExempt(address _addr) external onlyOwner {\r\n        _isFeeExempt[_addr] = true;\r\n    }\r\n\r\n    function shouldTakeFee(address from, address to) internal view returns (bool) {\r\n        return (pair == from || pair == to) && (!_isFeeExempt[from]);\r\n    }\r\n\r\n    function mint(address recipient, uint256 amount) external onlyMinter {\r\n        _totalSupply = _totalSupply.add(uint256(amount));\r\n\r\n        if (_totalSupply > MAX_SUPPLY) {\r\n            _totalSupply = MAX_SUPPLY;\r\n        }\r\n\r\n        _gonsPerFragment = TOTAL_GONS.div(_totalSupply);\r\n        pairContract.sync();\r\n\r\n        _gonBalances[recipient] = _gonBalances[recipient].add(amount);\r\n    }\r\n\r\n    function setSwapBackSettings(\r\n        bool _enabled,\r\n        uint256 _num,\r\n        uint256 _denom\r\n    ) external onlyOwner {\r\n        swapEnabled = _enabled;\r\n        gonSwapThreshold = TOTAL_GONS.div(_denom).mul(_num);\r\n    }\r\n\r\n    function shouldSwapBack() internal view returns (bool) {\r\n        return\r\n            msg.sender != pair &&\r\n            !inSwap &&\r\n            swapEnabled &&\r\n            _gonBalances[address(this)] >= gonSwapThreshold;\r\n    }\r\n\r\n    function getCirculatingSupply() public view returns (uint256) {\r\n        return\r\n            (TOTAL_GONS.sub(_gonBalances[DEAD]).sub(_gonBalances[ZERO])).div(\r\n                _gonsPerFragment\r\n            );\r\n    }\r\n\r\n    function setTargetLiquidity(uint256 target, uint256 accuracy) external onlyOwner {\r\n        targetLiquidity = target;\r\n        targetLiquidityDenominator = accuracy;\r\n    }\r\n\r\n    function addMinter(address account) public onlyOwner {\r\n        _addMinter(account);\r\n    }\r\n\r\n    function removeMinter(address account) public onlyOwner {\r\n        _removeMinter(account);\r\n    }\r\n\r\n    function isNotInSwap() external view returns (bool) {\r\n        return !inSwap;\r\n    }\r\n\r\n    function sendPresale(address[] calldata recipients, uint256[] calldata values)\r\n        external\r\n        onlyOwner\r\n    {\r\n      for (uint256 i = 0; i < recipients.length; i++) {\r\n        _transferFrom(msg.sender, recipients[i], values[i]);\r\n      }\r\n    }\r\n\r\n    function checkSwapThreshold() external view returns (uint256) {\r\n        return gonSwapThreshold.div(_gonsPerFragment);\r\n    }\r\n\r\n    function manualSync() external {\r\n        InterfaceLP(pair).sync();\r\n    }\r\n\r\n    function setFeeReceivers(\r\n        address _autoLiquidityReceiver,\r\n        address _TreasuryReceiver,\r\n        address _RiskFreeValueReceiver\r\n    ) external onlyOwner {\r\n        autoLiquidityReceiver = _autoLiquidityReceiver;\r\n        TreasuryReceiver = _TreasuryReceiver;\r\n        RiskFreeValueReceiver = _RiskFreeValueReceiver;\r\n    }\r\n\r\n    function setFees(\r\n        uint256 _liquidityFee,\r\n        uint256 _RiskFreeValue,\r\n        uint256 _Treasury,\r\n        uint256 _sellFee,\r\n        uint256 _feeDenominator\r\n    ) external onlyOwner {\r\n        liquidityFee = _liquidityFee;\r\n        RiskFreeValue = _RiskFreeValue;\r\n        Treasury = _Treasury;\r\n        sellFee = _sellFee;\r\n        totalFee = liquidityFee.add(Treasury).add(RiskFreeValue);\r\n        feeDenominator = _feeDenominator;\r\n        require(totalFee < feeDenominator / 4);\r\n    }\r\n\r\n    function clearStuckBalance(uint256 amountPercentage, address adr) external onlyOwner {\r\n        uint256 amountETH = address(this).balance;\r\n        payable(adr).transfer(\r\n            (amountETH * amountPercentage) / 100\r\n        );\r\n    }\r\n\r\n    function rescueToken(address tokenAddress, uint256 tokens)\r\n        public\r\n        onlyOwner\r\n        returns (bool success)\r\n    {\r\n        return ERC20Detailed(tokenAddress).transfer(msg.sender, tokens);\r\n    }\r\n\r\n    function transferToAddressETH(address payable recipient, uint256 amount)\r\n        private\r\n    {\r\n        recipient.transfer(amount);\r\n    }\r\n\r\n    function getLiquidityBacking(uint256 accuracy)\r\n        public\r\n        view\r\n        returns (uint256)\r\n    {\r\n        uint256 liquidityBalance = _gonBalances[pair].div(_gonsPerFragment);\r\n        return\r\n            accuracy.mul(liquidityBalance.mul(2)).div(getCirculatingSupply());\r\n    }\r\n    \r\n    function isOverLiquified(uint256 target, uint256 accuracy)\r\n        public\r\n        view\r\n        returns (bool)\r\n    {\r\n        return getLiquidityBacking(accuracy) > target;\r\n    }\r\n\r\n    receive() external payable {}\r\n}",
  "sourcePath": "D:\\Working\\Freelancing\\2.ERIS\\Project\\eris-dapp-defi\\contracts\\ERIS.sol",
  "compiler": {
    "name": "solc",
    "version": "0.7.4+commit.3f05b770.Emscripten.clang"
  },
  "schemaVersion": "3.4.4",
  "updatedAt": "2022-01-28T13:44:26.559Z",
  "networkType": "ethereum",
  "devdoc": {
    "kind": "dev",
    "methods": {},
    "version": 1
  },
  "userdoc": {
    "kind": "user",
    "methods": {},
    "version": 1
  }
}