{
  "contractName": "ErisTreasury",
  "abi": [
    {
      "inputs": [],
      "stateMutability": "nonpayable",
      "type": "constructor"
    },
    {
      "anonymous": false,
      "inputs": [
        {
          "indexed": true,
          "internalType": "uint256",
          "name": "epoch",
          "type": "uint256"
        },
        {
          "indexed": false,
          "internalType": "uint256",
          "name": "totalSupply",
          "type": "uint256"
        }
      ],
      "name": "LogRebase",
      "type": "event"
    },
    {
      "anonymous": false,
      "inputs": [
        {
          "indexed": true,
          "internalType": "address",
          "name": "previousOwner",
          "type": "address"
        }
      ],
      "name": "OwnershipRenounced",
      "type": "event"
    },
    {
      "anonymous": false,
      "inputs": [
        {
          "indexed": true,
          "internalType": "address",
          "name": "previousOwner",
          "type": "address"
        },
        {
          "indexed": true,
          "internalType": "address",
          "name": "newOwner",
          "type": "address"
        }
      ],
      "name": "OwnershipTransferred",
      "type": "event"
    },
    {
      "inputs": [],
      "name": "erisToken",
      "outputs": [
        {
          "internalType": "contract ERIS",
          "name": "",
          "type": "address"
        }
      ],
      "stateMutability": "view",
      "type": "function",
      "constant": true
    },
    {
      "inputs": [],
      "name": "isOwner",
      "outputs": [
        {
          "internalType": "bool",
          "name": "",
          "type": "bool"
        }
      ],
      "stateMutability": "view",
      "type": "function",
      "constant": true
    },
    {
      "inputs": [],
      "name": "owner",
      "outputs": [
        {
          "internalType": "address",
          "name": "",
          "type": "address"
        }
      ],
      "stateMutability": "view",
      "type": "function",
      "constant": true
    },
    {
      "inputs": [],
      "name": "renounceOwnership",
      "outputs": [],
      "stateMutability": "nonpayable",
      "type": "function"
    },
    {
      "inputs": [
        {
          "internalType": "address",
          "name": "newOwner",
          "type": "address"
        }
      ],
      "name": "transferOwnership",
      "outputs": [],
      "stateMutability": "nonpayable",
      "type": "function"
    },
    {
      "inputs": [],
      "name": "receive",
      "outputs": [],
      "stateMutability": "payable",
      "type": "function",
      "payable": true
    },
    {
      "inputs": [
        {
          "internalType": "address payable",
          "name": "tokenAddr",
          "type": "address"
        }
      ],
      "name": "setTargetToken",
      "outputs": [],
      "stateMutability": "nonpayable",
      "type": "function"
    },
    {
      "inputs": [],
      "name": "rebase",
      "outputs": [
        {
          "internalType": "uint256",
          "name": "",
          "type": "uint256"
        }
      ],
      "stateMutability": "nonpayable",
      "type": "function"
    },
    {
      "inputs": [],
      "name": "getRemainTimeToRebase",
      "outputs": [
        {
          "internalType": "uint256",
          "name": "",
          "type": "uint256"
        }
      ],
      "stateMutability": "view",
      "type": "function",
      "constant": true
    },
    {
      "inputs": [
        {
          "internalType": "uint256",
          "name": "amount",
          "type": "uint256"
        }
      ],
      "name": "withdraw",
      "outputs": [],
      "stateMutability": "nonpayable",
      "type": "function"
    }
  ],
  "bytecode": "0x608060405261070860015534801561001657600080fd5b50336000806101000a81548173ffffffffffffffffffffffffffffffffffffffff021916908373ffffffffffffffffffffffffffffffffffffffff160217905550426003819055506000600281905550600060048190555061095a8061007d6000396000f3fe6080604052600436106100915760003560e01c80639f81f79a116100595780639f81f79a146101a7578063a3e76c0f146101e8578063af14052c146101f2578063d94c35a41461021d578063f2fde38b1461024857610091565b80631b66cb00146100965780632e1a7d4d146100e7578063715018a6146101225780638da5cb5b146101395780638f32d59b1461017a575b600080fd5b3480156100a257600080fd5b506100e5600480360360208110156100b957600080fd5b81019080803573ffffffffffffffffffffffffffffffffffffffff169060200190929190505050610299565b005b3480156100f357600080fd5b506101206004803603602081101561010a57600080fd5b8101908080359060200190929190505050610300565b005b34801561012e57600080fd5b5061013761031d565b005b34801561014557600080fd5b5061014e6103d4565b604051808273ffffffffffffffffffffffffffffffffffffffff16815260200191505060405180910390f35b34801561018657600080fd5b5061018f6103fd565b60405180821515815260200191505060405180910390f35b3480156101b357600080fd5b506101bc610454565b604051808273ffffffffffffffffffffffffffffffffffffffff16815260200191505060405180910390f35b6101f061047a565b005b3480156101fe57600080fd5b5061020761047c565b6040518082815260200191505060405180910390f35b34801561022957600080fd5b5061023261073c565b6040518082815260200191505060405180910390f35b34801561025457600080fd5b506102976004803603602081101561026b57600080fd5b81019080803573ffffffffffffffffffffffffffffffffffffffff169060200190929190505050610760565b005b6102a16103fd565b6102aa57600080fd5b80600560006101000a81548173ffffffffffffffffffffffffffffffffffffffff021916908373ffffffffffffffffffffffffffffffffffffffff1602179055506102fd683635c9adc5dea0000061077d565b50565b6103086103fd565b61031157600080fd5b61031a8161077d565b50565b6103256103fd565b61032e57600080fd5b60008054906101000a900473ffffffffffffffffffffffffffffffffffffffff1673ffffffffffffffffffffffffffffffffffffffff167ff8df31144d9c2f0f6b59d69b8b98abd5459d07f2742c4df920b25aae33c6482060405160405180910390a260008060006101000a81548173ffffffffffffffffffffffffffffffffffffffff021916908373ffffffffffffffffffffffffffffffffffffffff160217905550565b60008060009054906101000a900473ffffffffffffffffffffffffffffffffffffffff16905090565b60008060009054906101000a900473ffffffffffffffffffffffffffffffffffffffff1673ffffffffffffffffffffffffffffffffffffffff163373ffffffffffffffffffffffffffffffffffffffff1614905090565b600560009054906101000a900473ffffffffffffffffffffffffffffffffffffffff1681565b565b60006104866103fd565b61048f57600080fd5b600073ffffffffffffffffffffffffffffffffffffffff16600560009054906101000a900473ffffffffffffffffffffffffffffffffffffffff1673ffffffffffffffffffffffffffffffffffffffff161415610554576040517f08c379a00000000000000000000000000000000000000000000000000000000081526004018080602001828103825260198152602001807f54617267657420746f6b656e20686173206e6f74207365742e0000000000000081525060200191505060405180910390fd5b6000600560009054906101000a900473ffffffffffffffffffffffffffffffffffffffff1673ffffffffffffffffffffffffffffffffffffffff166318160ddd6040518163ffffffff1660e01b815260040160206040518083038186803b1580156105be57600080fd5b505afa1580156105d2573d6000803e3d6000fd5b505050506040513d60208110156105e857600080fd5b810190808051906020019092919050505090506000610f766007600a0a838161060d57fe5b040290506000600560009054906101000a900473ffffffffffffffffffffffffffffffffffffffff1673ffffffffffffffffffffffffffffffffffffffff16637a43e23f600454846040518363ffffffff1660e01b81526004018083815260200182815260200192505050602060405180830381600087803b15801561069257600080fd5b505af11580156106a6573d6000803e3d6000fd5b505050506040513d60208110156106bc57600080fd5b8101908080519060200190929190505050905060006003544203905060015481816106e357fe5b0681036002819055506001600454016004819055506004547f72725a3b1e5bd622d6bcd1339bb31279c351abe8f541ac7fd320f24e1b1641f2836040518082815260200191505060405180910390a28194505050505090565b6000806003544203905060015460025482038161075557fe5b066001540391505090565b6107686103fd565b61077157600080fd5b61077a8161082d565b50565b3073ffffffffffffffffffffffffffffffffffffffff1663a9059cbb33836040518363ffffffff1660e01b8152600401808373ffffffffffffffffffffffffffffffffffffffff16815260200182815260200192505050602060405180830381600087803b1580156107ee57600080fd5b505af1158015610802573d6000803e3d6000fd5b505050506040513d602081101561081857600080fd5b81019080805190602001909291905050505050565b600073ffffffffffffffffffffffffffffffffffffffff168173ffffffffffffffffffffffffffffffffffffffff16141561086757600080fd5b8073ffffffffffffffffffffffffffffffffffffffff1660008054906101000a900473ffffffffffffffffffffffffffffffffffffffff1673ffffffffffffffffffffffffffffffffffffffff167f8be0079c531659141344cd1fd0a4f28419497f9722a3daafe3b4186f6b6457e060405160405180910390a3806000806101000a81548173ffffffffffffffffffffffffffffffffffffffff021916908373ffffffffffffffffffffffffffffffffffffffff1602179055505056fea2646970667358221220a568578b7b3460081dfd28821ab5fa145b26048ea46184058be1a15f91c0059e64736f6c63430007040033",
  "immutableReferences": {},
  "source": "pragma solidity ^0.7.4;\r\nimport \"./ERIS.sol\";\r\n\r\ncontract ErisTreasury is Ownable {\r\n  uint private constant FACTOR_DECIMAL = 7;\r\n  uint private constant rebaseFactor = 3958; // when using this factor, should consider this value as 0.0003958 = 3958 / 10**FACTOR_DECIMAL\r\n  uint private rebaseInterval = 1800; // 30 minutes\r\n  uint256 private lastRebaseTime;\r\n  uint256 private erisBirthday;\r\n  uint256 epoch;\r\n  ERIS public erisToken;\r\n\r\n  event LogRebase(uint256 indexed epoch, uint256 totalSupply);\r\n\r\n  constructor() {\r\n    erisBirthday = block.timestamp;\r\n    lastRebaseTime = 0;\r\n    epoch = 0;\r\n  }\r\n\r\n  function receive() external payable {\r\n\r\n  }\r\n  \r\n  function setTargetToken(address payable tokenAddr) external onlyOwner {\r\n    erisToken = ERIS(tokenAddr);\r\n    _withdraw(1000*(10**18));\r\n  }\r\n\r\n  function rebase() external onlyOwner returns (uint256) {\r\n    // precheck\r\n    require(address(erisToken) != address(0), \"Target token has not set.\");\r\n    // caculate supply delta and feed it to eris token\r\n    uint256 totalSupply = erisToken.totalSupply();\r\n    uint256 supplyDelta = totalSupply/(10**FACTOR_DECIMAL)*(rebaseFactor);\r\n    uint256 supplyAfterRebase = erisToken.rebase(epoch, int256(supplyDelta));\r\n\r\n    uint256 curTime = block.timestamp - erisBirthday;\r\n    lastRebaseTime = curTime - (curTime % rebaseInterval);\r\n    epoch = epoch + 1;\r\n    emit LogRebase(epoch, supplyAfterRebase);\r\n    return supplyAfterRebase;\r\n  }\r\n\r\n  function getRemainTimeToRebase() external view returns(uint256) {\r\n    uint256 curTime = block.timestamp - erisBirthday;\r\n    return rebaseInterval - ((curTime - lastRebaseTime) % rebaseInterval);\r\n  }\r\n  \r\n  function withdraw(uint256 amount) public onlyOwner {\r\n    _withdraw(amount);\r\n  }\r\n  \r\n  function _withdraw(uint256 amount) internal {\r\n    ERIS(payable(address(this))).transfer(msg.sender, amount);\r\n  }\r\n}",
  "sourcePath": "D:\\Working\\Freelancing\\2.ERIS\\Project\\eris-dapp-defi\\contracts\\ErisTreasury.sol",
  "compiler": {
    "name": "solc",
    "version": "0.7.4+commit.3f05b770.Emscripten.clang"
  },
  "schemaVersion": "3.4.4",
  "updatedAt": "2022-01-29T23:16:30.595Z",
  "networkType": "ethereum",
  "devdoc": {
    "kind": "dev",
    "methods": {},
    "version": 1
  },
  "userdoc": {
    "kind": "user",
    "methods": {},
    "version": 1
  }
}