{
  "contractName": "ERIS",
  "abi": [
    {
      "inputs": [
        {
          "internalType": "address",
          "name": "treasury",
          "type": "address"
        }
      ],
      "stateMutability": "nonpayable",
      "type": "constructor"
    },
    {
      "anonymous": false,
      "inputs": [
        {
          "indexed": true,
          "internalType": "address",
          "name": "owner",
          "type": "address"
        },
        {
          "indexed": true,
          "internalType": "address",
          "name": "spender",
          "type": "address"
        },
        {
          "indexed": false,
          "internalType": "uint256",
          "name": "value",
          "type": "uint256"
        }
      ],
      "name": "Approval",
      "type": "event"
    },
    {
      "anonymous": false,
      "inputs": [
        {
          "indexed": true,
          "internalType": "uint256",
          "name": "epoch",
          "type": "uint256"
        },
        {
          "indexed": false,
          "internalType": "uint256",
          "name": "totalSupply",
          "type": "uint256"
        }
      ],
      "name": "LogRebase",
      "type": "event"
    },
    {
      "anonymous": false,
      "inputs": [
        {
          "indexed": true,
          "internalType": "address",
          "name": "account",
          "type": "address"
        }
      ],
      "name": "MinterAdded",
      "type": "event"
    },
    {
      "anonymous": false,
      "inputs": [
        {
          "indexed": true,
          "internalType": "address",
          "name": "account",
          "type": "address"
        }
      ],
      "name": "MinterRemoved",
      "type": "event"
    },
    {
      "anonymous": false,
      "inputs": [
        {
          "indexed": true,
          "internalType": "address",
          "name": "previousOwner",
          "type": "address"
        }
      ],
      "name": "OwnershipRenounced",
      "type": "event"
    },
    {
      "anonymous": false,
      "inputs": [
        {
          "indexed": true,
          "internalType": "address",
          "name": "previousOwner",
          "type": "address"
        },
        {
          "indexed": true,
          "internalType": "address",
          "name": "newOwner",
          "type": "address"
        }
      ],
      "name": "OwnershipTransferred",
      "type": "event"
    },
    {
      "anonymous": false,
      "inputs": [
        {
          "indexed": true,
          "internalType": "address",
          "name": "from",
          "type": "address"
        },
        {
          "indexed": true,
          "internalType": "address",
          "name": "to",
          "type": "address"
        },
        {
          "indexed": false,
          "internalType": "uint256",
          "name": "value",
          "type": "uint256"
        }
      ],
      "name": "Transfer",
      "type": "event"
    },
    {
      "inputs": [],
      "name": "RiskFreeValue",
      "outputs": [
        {
          "internalType": "uint256",
          "name": "",
          "type": "uint256"
        }
      ],
      "stateMutability": "view",
      "type": "function"
    },
    {
      "inputs": [],
      "name": "RiskFreeValueReceiver",
      "outputs": [
        {
          "internalType": "address",
          "name": "",
          "type": "address"
        }
      ],
      "stateMutability": "view",
      "type": "function"
    },
    {
      "inputs": [],
      "name": "Treasury",
      "outputs": [
        {
          "internalType": "uint256",
          "name": "",
          "type": "uint256"
        }
      ],
      "stateMutability": "view",
      "type": "function"
    },
    {
      "inputs": [],
      "name": "TreasuryReceiver",
      "outputs": [
        {
          "internalType": "address",
          "name": "",
          "type": "address"
        }
      ],
      "stateMutability": "view",
      "type": "function"
    },
    {
      "inputs": [],
      "name": "autoLiquidityReceiver",
      "outputs": [
        {
          "internalType": "address",
          "name": "",
          "type": "address"
        }
      ],
      "stateMutability": "view",
      "type": "function"
    },
    {
      "inputs": [
        {
          "internalType": "address",
          "name": "",
          "type": "address"
        }
      ],
      "name": "blacklist",
      "outputs": [
        {
          "internalType": "bool",
          "name": "",
          "type": "bool"
        }
      ],
      "stateMutability": "view",
      "type": "function"
    },
    {
      "inputs": [],
      "name": "decimals",
      "outputs": [
        {
          "internalType": "uint8",
          "name": "",
          "type": "uint8"
        }
      ],
      "stateMutability": "view",
      "type": "function"
    },
    {
      "inputs": [],
      "name": "feeDenominator",
      "outputs": [
        {
          "internalType": "uint256",
          "name": "",
          "type": "uint256"
        }
      ],
      "stateMutability": "view",
      "type": "function"
    },
    {
      "inputs": [],
      "name": "initialDistributionFinished",
      "outputs": [
        {
          "internalType": "bool",
          "name": "",
          "type": "bool"
        }
      ],
      "stateMutability": "view",
      "type": "function"
    },
    {
      "inputs": [
        {
          "internalType": "address",
          "name": "account",
          "type": "address"
        }
      ],
      "name": "isMinter",
      "outputs": [
        {
          "internalType": "bool",
          "name": "",
          "type": "bool"
        }
      ],
      "stateMutability": "view",
      "type": "function"
    },
    {
      "inputs": [],
      "name": "isOwner",
      "outputs": [
        {
          "internalType": "bool",
          "name": "",
          "type": "bool"
        }
      ],
      "stateMutability": "view",
      "type": "function"
    },
    {
      "inputs": [],
      "name": "liquidityFee",
      "outputs": [
        {
          "internalType": "uint256",
          "name": "",
          "type": "uint256"
        }
      ],
      "stateMutability": "view",
      "type": "function"
    },
    {
      "inputs": [],
      "name": "name",
      "outputs": [
        {
          "internalType": "string",
          "name": "",
          "type": "string"
        }
      ],
      "stateMutability": "view",
      "type": "function"
    },
    {
      "inputs": [],
      "name": "owner",
      "outputs": [
        {
          "internalType": "address",
          "name": "",
          "type": "address"
        }
      ],
      "stateMutability": "view",
      "type": "function"
    },
    {
      "inputs": [],
      "name": "pair",
      "outputs": [
        {
          "internalType": "address",
          "name": "",
          "type": "address"
        }
      ],
      "stateMutability": "view",
      "type": "function"
    },
    {
      "inputs": [],
      "name": "pairContract",
      "outputs": [
        {
          "internalType": "contract InterfaceLP",
          "name": "",
          "type": "address"
        }
      ],
      "stateMutability": "view",
      "type": "function"
    },
    {
      "inputs": [],
      "name": "renounceMinter",
      "outputs": [],
      "stateMutability": "nonpayable",
      "type": "function"
    },
    {
      "inputs": [],
      "name": "renounceOwnership",
      "outputs": [],
      "stateMutability": "nonpayable",
      "type": "function"
    },
    {
      "inputs": [],
      "name": "router",
      "outputs": [
        {
          "internalType": "contract IDEXRouter",
          "name": "",
          "type": "address"
        }
      ],
      "stateMutability": "view",
      "type": "function"
    },
    {
      "inputs": [],
      "name": "sellFee",
      "outputs": [
        {
          "internalType": "uint256",
          "name": "",
          "type": "uint256"
        }
      ],
      "stateMutability": "view",
      "type": "function"
    },
    {
      "inputs": [],
      "name": "swapEnabled",
      "outputs": [
        {
          "internalType": "bool",
          "name": "",
          "type": "bool"
        }
      ],
      "stateMutability": "view",
      "type": "function"
    },
    {
      "inputs": [],
      "name": "symbol",
      "outputs": [
        {
          "internalType": "string",
          "name": "",
          "type": "string"
        }
      ],
      "stateMutability": "view",
      "type": "function"
    },
    {
      "inputs": [],
      "name": "totalFee",
      "outputs": [
        {
          "internalType": "uint256",
          "name": "",
          "type": "uint256"
        }
      ],
      "stateMutability": "view",
      "type": "function"
    },
    {
      "inputs": [
        {
          "internalType": "address",
          "name": "newOwner",
          "type": "address"
        }
      ],
      "name": "transferOwnership",
      "outputs": [],
      "stateMutability": "nonpayable",
      "type": "function"
    },
    {
      "stateMutability": "payable",
      "type": "receive"
    },
    {
      "inputs": [
        {
          "internalType": "address",
          "name": "_user",
          "type": "address"
        },
        {
          "internalType": "bool",
          "name": "_flag",
          "type": "bool"
        }
      ],
      "name": "updateBlacklist",
      "outputs": [],
      "stateMutability": "nonpayable",
      "type": "function"
    },
    {
      "inputs": [
        {
          "internalType": "uint256",
          "name": "epoch",
          "type": "uint256"
        },
        {
          "internalType": "int256",
          "name": "supplyDelta",
          "type": "int256"
        }
      ],
      "name": "rebase",
      "outputs": [
        {
          "internalType": "uint256",
          "name": "",
          "type": "uint256"
        }
      ],
      "stateMutability": "nonpayable",
      "type": "function"
    },
    {
      "inputs": [],
      "name": "remainToRabase",
      "outputs": [
        {
          "internalType": "uint256",
          "name": "",
          "type": "uint256"
        }
      ],
      "stateMutability": "view",
      "type": "function"
    },
    {
      "inputs": [],
      "name": "totalSupply",
      "outputs": [
        {
          "internalType": "uint256",
          "name": "",
          "type": "uint256"
        }
      ],
      "stateMutability": "view",
      "type": "function"
    },
    {
      "inputs": [
        {
          "internalType": "address",
          "name": "to",
          "type": "address"
        },
        {
          "internalType": "uint256",
          "name": "value",
          "type": "uint256"
        }
      ],
      "name": "transfer",
      "outputs": [
        {
          "internalType": "bool",
          "name": "",
          "type": "bool"
        }
      ],
      "stateMutability": "nonpayable",
      "type": "function"
    },
    {
      "inputs": [
        {
          "internalType": "address",
          "name": "_address",
          "type": "address"
        }
      ],
      "name": "setLP",
      "outputs": [],
      "stateMutability": "nonpayable",
      "type": "function"
    },
    {
      "inputs": [
        {
          "internalType": "address",
          "name": "owner_",
          "type": "address"
        },
        {
          "internalType": "address",
          "name": "spender",
          "type": "address"
        }
      ],
      "name": "allowance",
      "outputs": [
        {
          "internalType": "uint256",
          "name": "",
          "type": "uint256"
        }
      ],
      "stateMutability": "view",
      "type": "function"
    },
    {
      "inputs": [
        {
          "internalType": "address",
          "name": "who",
          "type": "address"
        }
      ],
      "name": "balanceOf",
      "outputs": [
        {
          "internalType": "uint256",
          "name": "",
          "type": "uint256"
        }
      ],
      "stateMutability": "view",
      "type": "function"
    },
    {
      "inputs": [
        {
          "internalType": "address",
          "name": "from",
          "type": "address"
        },
        {
          "internalType": "address",
          "name": "to",
          "type": "address"
        },
        {
          "internalType": "uint256",
          "name": "value",
          "type": "uint256"
        }
      ],
      "name": "transferFrom",
      "outputs": [
        {
          "internalType": "bool",
          "name": "",
          "type": "bool"
        }
      ],
      "stateMutability": "nonpayable",
      "type": "function"
    },
    {
      "inputs": [
        {
          "internalType": "address",
          "name": "spender",
          "type": "address"
        },
        {
          "internalType": "uint256",
          "name": "subtractedValue",
          "type": "uint256"
        }
      ],
      "name": "decreaseAllowance",
      "outputs": [
        {
          "internalType": "bool",
          "name": "",
          "type": "bool"
        }
      ],
      "stateMutability": "nonpayable",
      "type": "function"
    },
    {
      "inputs": [
        {
          "internalType": "address",
          "name": "spender",
          "type": "address"
        },
        {
          "internalType": "uint256",
          "name": "addedValue",
          "type": "uint256"
        }
      ],
      "name": "increaseAllowance",
      "outputs": [
        {
          "internalType": "bool",
          "name": "",
          "type": "bool"
        }
      ],
      "stateMutability": "nonpayable",
      "type": "function"
    },
    {
      "inputs": [
        {
          "internalType": "address",
          "name": "spender",
          "type": "address"
        },
        {
          "internalType": "uint256",
          "name": "value",
          "type": "uint256"
        }
      ],
      "name": "approve",
      "outputs": [
        {
          "internalType": "bool",
          "name": "",
          "type": "bool"
        }
      ],
      "stateMutability": "nonpayable",
      "type": "function"
    },
    {
      "inputs": [
        {
          "internalType": "address",
          "name": "_addr",
          "type": "address"
        }
      ],
      "name": "checkFeeExempt",
      "outputs": [
        {
          "internalType": "bool",
          "name": "",
          "type": "bool"
        }
      ],
      "stateMutability": "view",
      "type": "function"
    },
    {
      "inputs": [],
      "name": "setInitialDistributionFinished",
      "outputs": [],
      "stateMutability": "nonpayable",
      "type": "function"
    },
    {
      "inputs": [
        {
          "internalType": "address",
          "name": "_addr",
          "type": "address"
        }
      ],
      "name": "enableTransfer",
      "outputs": [],
      "stateMutability": "nonpayable",
      "type": "function"
    },
    {
      "inputs": [
        {
          "internalType": "address",
          "name": "_addr",
          "type": "address"
        }
      ],
      "name": "setFeeExempt",
      "outputs": [],
      "stateMutability": "nonpayable",
      "type": "function"
    },
    {
      "inputs": [
        {
          "internalType": "address",
          "name": "recipient",
          "type": "address"
        },
        {
          "internalType": "uint256",
          "name": "amount",
          "type": "uint256"
        }
      ],
      "name": "mint",
      "outputs": [],
      "stateMutability": "nonpayable",
      "type": "function"
    },
    {
      "inputs": [],
      "name": "getCirculatingSupply",
      "outputs": [
        {
          "internalType": "uint256",
          "name": "",
          "type": "uint256"
        }
      ],
      "stateMutability": "view",
      "type": "function"
    },
    {
      "inputs": [
        {
          "internalType": "uint256",
          "name": "target",
          "type": "uint256"
        },
        {
          "internalType": "uint256",
          "name": "accuracy",
          "type": "uint256"
        }
      ],
      "name": "setTargetLiquidity",
      "outputs": [],
      "stateMutability": "nonpayable",
      "type": "function"
    },
    {
      "inputs": [
        {
          "internalType": "address",
          "name": "account",
          "type": "address"
        }
      ],
      "name": "addMinter",
      "outputs": [],
      "stateMutability": "nonpayable",
      "type": "function"
    },
    {
      "inputs": [
        {
          "internalType": "address",
          "name": "account",
          "type": "address"
        }
      ],
      "name": "removeMinter",
      "outputs": [],
      "stateMutability": "nonpayable",
      "type": "function"
    },
    {
      "inputs": [],
      "name": "isNotInSwap",
      "outputs": [
        {
          "internalType": "bool",
          "name": "",
          "type": "bool"
        }
      ],
      "stateMutability": "view",
      "type": "function"
    },
    {
      "inputs": [
        {
          "internalType": "address[]",
          "name": "recipients",
          "type": "address[]"
        },
        {
          "internalType": "uint256[]",
          "name": "values",
          "type": "uint256[]"
        }
      ],
      "name": "sendPresale",
      "outputs": [],
      "stateMutability": "nonpayable",
      "type": "function"
    },
    {
      "inputs": [],
      "name": "checkSwapThreshold",
      "outputs": [
        {
          "internalType": "uint256",
          "name": "",
          "type": "uint256"
        }
      ],
      "stateMutability": "view",
      "type": "function"
    },
    {
      "inputs": [],
      "name": "manualSync",
      "outputs": [],
      "stateMutability": "nonpayable",
      "type": "function"
    },
    {
      "inputs": [
        {
          "internalType": "address",
          "name": "_autoLiquidityReceiver",
          "type": "address"
        },
        {
          "internalType": "address",
          "name": "_TreasuryReceiver",
          "type": "address"
        },
        {
          "internalType": "address",
          "name": "_RiskFreeValueReceiver",
          "type": "address"
        }
      ],
      "name": "setFeeReceivers",
      "outputs": [],
      "stateMutability": "nonpayable",
      "type": "function"
    },
    {
      "inputs": [
        {
          "internalType": "uint256",
          "name": "accuracy",
          "type": "uint256"
        }
      ],
      "name": "getLiquidityBacking",
      "outputs": [
        {
          "internalType": "uint256",
          "name": "",
          "type": "uint256"
        }
      ],
      "stateMutability": "view",
      "type": "function"
    },
    {
      "inputs": [
        {
          "internalType": "uint256",
          "name": "target",
          "type": "uint256"
        },
        {
          "internalType": "uint256",
          "name": "accuracy",
          "type": "uint256"
        }
      ],
      "name": "isOverLiquified",
      "outputs": [
        {
          "internalType": "bool",
          "name": "",
          "type": "bool"
        }
      ],
      "stateMutability": "view",
      "type": "function"
    }
  ],
  "bytecode": "0x60806040526005600755600360085560056009556005600a55620000516009546200003d60085460075462000a8960201b62002d101790919060201c565b62000a8960201b62002d101790919060201c565b600b556064600c5561dead600d60006101000a81548173ffffffffffffffffffffffffffffffffffffffff021916908373ffffffffffffffffffffffffffffffffffffffff1602179055506000600e60006101000a81548173ffffffffffffffffffffffffffffffffffffffff021916908373ffffffffffffffffffffffffffffffffffffffff1602179055506032601255606460135573e3aa453fefa2ee7305b70df5fa6129f90c18c04e601560006101000a81548173ffffffffffffffffffffffffffffffffffffffff021916908373ffffffffffffffffffffffffffffffffffffffff1602179055506001601560146101000a81548160ff0219169083151502179055506305f5e100600a6012600a0a63ee6b280002600019816200017557fe5b066000190302816200018357fe5b046016553480156200019457600080fd5b506040516200549a3803806200549a83398181016040526020811015620001ba57600080fd5b81019080805190602001909291905050506040518060400160405280601781526020017f45524953204175746f205374616b696e6720546f6b656e0000000000000000008152506040518060400160405280600481526020017f4552495300000000000000000000000000000000000000000000000000000000815250601282600090805190602001906200025192919062000f4f565b5081600190805190602001906200026a92919062000f4f565b5080600260006101000a81548160ff021916908360ff16021790555050505033600260016101000a81548173ffffffffffffffffffffffffffffffffffffffff021916908373ffffffffffffffffffffffffffffffffffffffff160217905550620002db3362000b1260201b60201c565b6001156200033e57731ed675d5e63314b760162a3d1cae1803dcfc87c7601460006101000a81548173ffffffffffffffffffffffffffffffffffffffff021916908373ffffffffffffffffffffffffffffffffffffffff16021790555062000394565b7310ed43c718714eb63d5aa57b78b54704e256024e601460006101000a81548173ffffffffffffffffffffffffffffffffffffffff021916908373ffffffffffffffffffffffffffffffffffffffff1602179055505b601460009054906101000a900473ffffffffffffffffffffffffffffffffffffffff1673ffffffffffffffffffffffffffffffffffffffff1663c45a01556040518163ffffffff1660e01b815260040160206040518083038186803b158015620003fd57600080fd5b505afa15801562000412573d6000803e3d6000fd5b505050506040513d60208110156200042957600080fd5b810190808051906020019092919050505073ffffffffffffffffffffffffffffffffffffffff1663c9c65396601460009054906101000a900473ffffffffffffffffffffffffffffffffffffffff1673ffffffffffffffffffffffffffffffffffffffff1663ad5c46486040518163ffffffff1660e01b815260040160206040518083038186803b158015620004be57600080fd5b505afa158015620004d3573d6000803e3d6000fd5b505050506040513d6020811015620004ea57600080fd5b8101908080519060200190929190505050306040518363ffffffff1660e01b8152600401808373ffffffffffffffffffffffffffffffffffffffff1681526020018273ffffffffffffffffffffffffffffffffffffffff16815260200192505050602060405180830381600087803b1580156200056657600080fd5b505af11580156200057b573d6000803e3d6000fd5b505050506040513d60208110156200059257600080fd5b8101908080519060200190929190505050601560006101000a81548173ffffffffffffffffffffffffffffffffffffffff021916908373ffffffffffffffffffffffffffffffffffffffff16021790555073fa1d544d46c7c50d7b7d7d2e85915f1b129a9386600f60006101000a81548173ffffffffffffffffffffffffffffffffffffffff021916908373ffffffffffffffffffffffffffffffffffffffff16021790555080601060006101000a81548173ffffffffffffffffffffffffffffffffffffffff021916908373ffffffffffffffffffffffffffffffffffffffff16021790555072de99c90e8971d3e1c9cba724381b537f6e88c1601160006101000a81548173ffffffffffffffffffffffffffffffffffffffff021916908373ffffffffffffffffffffffffffffffffffffffff1602179055507fffffffffffffffffffffffffffffffffffffffffffffffffffffffffffffffff601b60003073ffffffffffffffffffffffffffffffffffffffff1673ffffffffffffffffffffffffffffffffffffffff1681526020019081526020016000206000601460009054906101000a900473ffffffffffffffffffffffffffffffffffffffff1673ffffffffffffffffffffffffffffffffffffffff1673ffffffffffffffffffffffffffffffffffffffff16815260200190815260200160002081905550601560009054906101000a900473ffffffffffffffffffffffffffffffffffffffff16600460006101000a81548173ffffffffffffffffffffffffffffffffffffffff021916908373ffffffffffffffffffffffffffffffffffffffff1602179055506012600a0a63ee6b2800026018819055506012600a0a63ee6b280002600019816200081a57fe5b0660001903601a6000601060009054906101000a900473ffffffffffffffffffffffffffffffffffffffff1673ffffffffffffffffffffffffffffffffffffffff1673ffffffffffffffffffffffffffffffffffffffff16815260200190815260200160002081905550620008ba6018546012600a0a63ee6b28000260001981620008a157fe5b066000190362000b7360201b62002d981790919060201c565b6019819055506000600460146101000a81548160ff021916908315150217905550600160066000601060009054906101000a900473ffffffffffffffffffffffffffffffffffffffff1673ffffffffffffffffffffffffffffffffffffffff1673ffffffffffffffffffffffffffffffffffffffff16815260200190815260200160002060006101000a81548160ff0219169083151502179055506001600660003073ffffffffffffffffffffffffffffffffffffffff1673ffffffffffffffffffffffffffffffffffffffff16815260200190815260200160002060006101000a81548160ff021916908315150217905550620009e0601060009054906101000a900473ffffffffffffffffffffffffffffffffffffffff1662000bc560201b60201c565b42601d819055506000601e81905550610708601f81905550601060009054906101000a900473ffffffffffffffffffffffffffffffffffffffff1673ffffffffffffffffffffffffffffffffffffffff16600073ffffffffffffffffffffffffffffffffffffffff167fddf252ad1be2c89b69c2b068fc378daa952ba7f163c4a11628f55a4df523b3ef6018546040518082815260200191505060405180910390a35062001005565b60008082840190508381101562000b08576040517f08c379a000000000000000000000000000000000000000000000000000000000815260040180806020018281038252601b8152602001807f536166654d6174683a206164646974696f6e206f766572666c6f77000000000081525060200191505060405180910390fd5b8091505092915050565b62000b2d81600362000cc060201b62002de21790919060201c565b8073ffffffffffffffffffffffffffffffffffffffff167f6ae172837ea30b801fbfcdd4108aa1d5bf8ff775444fd70256b44e6bf3dfc3f660405160405180910390a250565b600062000bbd83836040518060400160405280601a81526020017f536166654d6174683a206469766973696f6e206279207a65726f00000000000081525062000da460201b60201c565b905092915050565b600073ffffffffffffffffffffffffffffffffffffffff168173ffffffffffffffffffffffffffffffffffffffff16141562000c0057600080fd5b8073ffffffffffffffffffffffffffffffffffffffff16600260019054906101000a900473ffffffffffffffffffffffffffffffffffffffff1673ffffffffffffffffffffffffffffffffffffffff167f8be0079c531659141344cd1fd0a4f28419497f9722a3daafe3b4186f6b6457e060405160405180910390a380600260016101000a81548173ffffffffffffffffffffffffffffffffffffffff021916908373ffffffffffffffffffffffffffffffffffffffff16021790555050565b62000cd2828262000e6f60201b60201c565b1562000d46576040517f08c379a000000000000000000000000000000000000000000000000000000000815260040180806020018281038252601f8152602001807f526f6c65733a206163636f756e7420616c72656164792068617320726f6c650081525060200191505060405180910390fd5b60018260000160008373ffffffffffffffffffffffffffffffffffffffff1673ffffffffffffffffffffffffffffffffffffffff16815260200190815260200160002060006101000a81548160ff0219169083151502179055505050565b6000808311829062000e54576040517f08c379a00000000000000000000000000000000000000000000000000000000081526004018080602001828103825283818151815260200191508051906020019080838360005b8381101562000e1857808201518184015260208101905062000dfb565b50505050905090810190601f16801562000e465780820380516001836020036101000a031916815260200191505b509250505060405180910390fd5b50600083858162000e6157fe5b049050809150509392505050565b60008073ffffffffffffffffffffffffffffffffffffffff168273ffffffffffffffffffffffffffffffffffffffff16141562000ef8576040517f08c379a0000000000000000000000000000000000000000000000000000000008152600401808060200182810382526022815260200180620054786022913960400191505060405180910390fd5b8260000160008373ffffffffffffffffffffffffffffffffffffffff1673ffffffffffffffffffffffffffffffffffffffff16815260200190815260200160002060009054906101000a900460ff16905092915050565b828054600181600116156101000203166002900490600052602060002090601f01602090048101928262000f87576000855562000fd3565b82601f1062000fa257805160ff191683800117855562000fd3565b8280016001018555821562000fd3579182015b8281111562000fd257825182559160200191906001019062000fb5565b5b50905062000fe2919062000fe6565b5090565b5b808211156200100157600081600090555060010162000fe7565b5090565b61446380620010156000396000f3fe6080604052600436106103035760003560e01c806383b4ac6811610190578063bda5c8bb116100dc578063d5938aac11610095578063dd62ed3e1161006f578063dd62ed3e1461112a578063f2fde38b146111af578063f887ea4014611200578063f9f92be4146112415761030a565b8063d5938aac14611007578063d7ac658514611058578063d7c01032146110995761030a565b8063bda5c8bb14610ddd578063ca33e64c14610e08578063d1fce26414610e49578063d37e219d14610e76578063d439979014610f51578063d51ed1c814610fb85761030a565b8063983b2d5611610149578063a8aa1b3111610123578063a8aa1b3114610c99578063a9059cbb14610cda578063aa271e1a14610d4b578063b785cb3b14610db25761030a565b8063983b2d5614610bc05780639865027514610c11578063a457c2d714610c285761030a565b806383b4ac6814610a0d5780638da5cb5b14610a3a5780638f32d59b14610a7b5780639155e08314610aa857806395d89b4114610b0557806398118cb414610b955761030a565b8063313ce5671161024f5780636ddd171311610208578063749796a5116101e2578063749796a51461090b578063753d02a11461095c5780637a43e23f14610973578063800cee51146109cc5761030a565b80636ddd17131461086257806370a082311461088f578063715018a6146108f45761030a565b8063313ce567146106d157806339509351146106ff57806340c10f19146107705780634d709adf146107cb578063563df32f1461080c5780636d351d1a146108375761030a565b8063201e7991116102bc5780632b14ca56116102965780632b14ca56146105ed5780632be6937d146106185780632f34d2821461062f5780633092afd5146106805761030a565b8063201e7991146104ec57806323b872dd146105315780632b112e49146105c25761030a565b806306fdde031461030f578063095ea7b31461039f5780631161ae3914610410578063180b0d7e1461046b57806318160ddd146104965780631df4ccfc146104c15761030a565b3661030a57005b600080fd5b34801561031b57600080fd5b506103246112a8565b6040518080602001828103825283818151815260200191508051906020019080838360005b83811015610364578082015181840152602081019050610349565b50505050905090810190601f1680156103915780820380516001836020036101000a031916815260200191505b509250505060405180910390f35b3480156103ab57600080fd5b506103f8600480360360408110156103c257600080fd5b81019080803573ffffffffffffffffffffffffffffffffffffffff1690602001909291908035906020019092919050505061134a565b60405180821515815260200191505060405180910390f35b34801561041c57600080fd5b506104536004803603604081101561043357600080fd5b8101908080359060200190929190803590602001909291905050506114b8565b60405180821515815260200191505060405180910390f35b34801561047757600080fd5b506104806114cd565b6040518082815260200191505060405180910390f35b3480156104a257600080fd5b506104ab6114d3565b6040518082815260200191505060405180910390f35b3480156104cd57600080fd5b506104d66114dd565b6040518082815260200191505060405180910390f35b3480156104f857600080fd5b5061052f6004803603604081101561050f57600080fd5b8101908080359060200190929190803590602001909291905050506114e3565b005b34801561053d57600080fd5b506105aa6004803603606081101561055457600080fd5b81019080803573ffffffffffffffffffffffffffffffffffffffff169060200190929190803573ffffffffffffffffffffffffffffffffffffffff16906020019092919080359060200190929190505050611506565b60405180821515815260200191505060405180910390f35b3480156105ce57600080fd5b506105d7611745565b6040518082815260200191505060405180910390f35b3480156105f957600080fd5b50610602611860565b6040518082815260200191505060405180910390f35b34801561062457600080fd5b5061062d611866565b005b34801561063b57600080fd5b5061067e6004803603602081101561065257600080fd5b81019080803573ffffffffffffffffffffffffffffffffffffffff169060200190929190505050611894565b005b34801561068c57600080fd5b506106cf600480360360208110156106a357600080fd5b81019080803573ffffffffffffffffffffffffffffffffffffffff169060200190929190505050611934565b005b3480156106dd57600080fd5b506106e6611951565b604051808260ff16815260200191505060405180910390f35b34801561070b57600080fd5b506107586004803603604081101561072257600080fd5b81019080803573ffffffffffffffffffffffffffffffffffffffff16906020019092919080359060200190929190505050611968565b60405180821515815260200191505060405180910390f35b34801561077c57600080fd5b506107c96004803603604081101561079357600080fd5b81019080803573ffffffffffffffffffffffffffffffffffffffff16906020019092919080359060200190929190505050611be0565b005b3480156107d757600080fd5b506107e0611de2565b604051808273ffffffffffffffffffffffffffffffffffffffff16815260200191505060405180910390f35b34801561081857600080fd5b50610821611e08565b6040518082815260200191505060405180910390f35b34801561084357600080fd5b5061084c611e0e565b6040518082815260200191505060405180910390f35b34801561086e57600080fd5b50610877611e2c565b60405180821515815260200191505060405180910390f35b34801561089b57600080fd5b506108de600480360360208110156108b257600080fd5b81019080803573ffffffffffffffffffffffffffffffffffffffff169060200190929190505050611e3f565b6040518082815260200191505060405180910390f35b34801561090057600080fd5b50610909611e9c565b005b34801561091757600080fd5b5061095a6004803603602081101561092e57600080fd5b81019080803573ffffffffffffffffffffffffffffffffffffffff169060200190929190505050611f56565b005b34801561096857600080fd5b50610971611fc2565b005b34801561097f57600080fd5b506109b66004803603604081101561099657600080fd5b810190808035906020019092919080359060200190929190505050612046565b6040518082815260200191505060405180910390f35b3480156109d857600080fd5b506109e16122ee565b604051808273ffffffffffffffffffffffffffffffffffffffff16815260200191505060405180910390f35b348015610a1957600080fd5b50610a22612314565b60405180821515815260200191505060405180910390f35b348015610a4657600080fd5b50610a4f61232c565b604051808273ffffffffffffffffffffffffffffffffffffffff16815260200191505060405180910390f35b348015610a8757600080fd5b50610a90612356565b60405180821515815260200191505060405180910390f35b348015610ab457600080fd5b50610b0360048036036040811015610acb57600080fd5b81019080803573ffffffffffffffffffffffffffffffffffffffff1690602001909291908035151590602001909291905050506123ae565b005b348015610b1157600080fd5b50610b1a61241a565b6040518080602001828103825283818151815260200191508051906020019080838360005b83811015610b5a578082015181840152602081019050610b3f565b50505050905090810190601f168015610b875780820380516001836020036101000a031916815260200191505b509250505060405180910390f35b348015610ba157600080fd5b50610baa6124bc565b6040518082815260200191505060405180910390f35b348015610bcc57600080fd5b50610c0f60048036036020811015610be357600080fd5b81019080803573ffffffffffffffffffffffffffffffffffffffff1690602001909291905050506124c2565b005b348015610c1d57600080fd5b50610c266124df565b005b348015610c3457600080fd5b50610c8160048036036040811015610c4b57600080fd5b81019080803573ffffffffffffffffffffffffffffffffffffffff169060200190929190803590602001909291905050506124ea565b60405180821515815260200191505060405180910390f35b348015610ca557600080fd5b50610cae6127f7565b604051808273ffffffffffffffffffffffffffffffffffffffff16815260200191505060405180910390f35b348015610ce657600080fd5b50610d3360048036036040811015610cfd57600080fd5b81019080803573ffffffffffffffffffffffffffffffffffffffff1690602001909291908035906020019092919050505061281d565b60405180821515815260200191505060405180910390f35b348015610d5757600080fd5b50610d9a60048036036020811015610d6e57600080fd5b81019080803573ffffffffffffffffffffffffffffffffffffffff169060200190929190505050612871565b60405180821515815260200191505060405180910390f35b348015610dbe57600080fd5b50610dc761288e565b6040518082815260200191505060405180910390f35b348015610de957600080fd5b50610df26128eb565b6040518082815260200191505060405180910390f35b348015610e1457600080fd5b50610e1d6128f1565b604051808273ffffffffffffffffffffffffffffffffffffffff16815260200191505060405180910390f35b348015610e5557600080fd5b50610e5e612917565b60405180821515815260200191505060405180910390f35b348015610e8257600080fd5b50610f4f60048036036040811015610e9957600080fd5b8101908080359060200190640100000000811115610eb657600080fd5b820183602082011115610ec857600080fd5b80359060200191846020830284011164010000000083111715610eea57600080fd5b909192939192939080359060200190640100000000811115610f0b57600080fd5b820183602082011115610f1d57600080fd5b80359060200191846020830284011164010000000083111715610f3f57600080fd5b909192939192939050505061292a565b005b348015610f5d57600080fd5b50610fa060048036036020811015610f7457600080fd5b81019080803573ffffffffffffffffffffffffffffffffffffffff1690602001909291905050506129a3565b60405180821515815260200191505060405180910390f35b348015610fc457600080fd5b50610ff160048036036020811015610fdb57600080fd5b81019080803590602001909291905050506129f9565b6040518082815260200191505060405180910390f35b34801561101357600080fd5b506110566004803603602081101561102a57600080fd5b81019080803573ffffffffffffffffffffffffffffffffffffffff169060200190929190505050612abb565b005b34801561106457600080fd5b5061106d612b27565b604051808273ffffffffffffffffffffffffffffffffffffffff16815260200191505060405180910390f35b3480156110a557600080fd5b50611128600480360360608110156110bc57600080fd5b81019080803573ffffffffffffffffffffffffffffffffffffffff169060200190929190803573ffffffffffffffffffffffffffffffffffffffff169060200190929190803573ffffffffffffffffffffffffffffffffffffffff169060200190929190505050612b4d565b005b34801561113657600080fd5b506111996004803603604081101561114d57600080fd5b81019080803573ffffffffffffffffffffffffffffffffffffffff169060200190929190803573ffffffffffffffffffffffffffffffffffffffff169060200190929190505050612c26565b6040518082815260200191505060405180910390f35b3480156111bb57600080fd5b506111fe600480360360208110156111d257600080fd5b81019080803573ffffffffffffffffffffffffffffffffffffffff169060200190929190505050612cad565b005b34801561120c57600080fd5b50611215612cca565b604051808273ffffffffffffffffffffffffffffffffffffffff16815260200191505060405180910390f35b34801561124d57600080fd5b506112906004803603602081101561126457600080fd5b81019080803573ffffffffffffffffffffffffffffffffffffffff169060200190929190505050612cf0565b60405180821515815260200191505060405180910390f35b606060008054600181600116156101000203166002900480601f0160208091040260200160405190810160405280929190818152602001828054600181600116156101000203166002900480156113405780601f1061131557610100808354040283529160200191611340565b820191906000526020600020905b81548152906001019060200180831161132357829003601f168201915b5050505050905090565b6000600460149054906101000a900460ff168061136b575061136a612356565b5b806113bf5750600560003373ffffffffffffffffffffffffffffffffffffffff1673ffffffffffffffffffffffffffffffffffffffff16815260200190815260200160002060009054906101000a900460ff165b6113c857600080fd5b81601b60003373ffffffffffffffffffffffffffffffffffffffff1673ffffffffffffffffffffffffffffffffffffffff16815260200190815260200160002060008573ffffffffffffffffffffffffffffffffffffffff1673ffffffffffffffffffffffffffffffffffffffff168152602001908152602001600020819055508273ffffffffffffffffffffffffffffffffffffffff163373ffffffffffffffffffffffffffffffffffffffff167f8c5be1e5ebec7d5bd14f71427d1e84f3dd0314c0f7b2291e5b200ac8c7c3b925846040518082815260200191505060405180910390a36001905092915050565b6000826114c4836129f9565b11905092915050565b600c5481565b6000601854905090565b600b5481565b6114eb612356565b6114f457600080fd5b81601281905550806013819055505050565b600082600073ffffffffffffffffffffffffffffffffffffffff168173ffffffffffffffffffffffffffffffffffffffff16141561154357600080fd5b7fffffffffffffffffffffffffffffffffffffffffffffffffffffffffffffffff601b60008773ffffffffffffffffffffffffffffffffffffffff1673ffffffffffffffffffffffffffffffffffffffff16815260200190815260200160002060003373ffffffffffffffffffffffffffffffffffffffff1673ffffffffffffffffffffffffffffffffffffffff168152602001908152602001600020541461172d576116ac836040518060400160405280601681526020017f496e73756666696369656e7420416c6c6f77616e636500000000000000000000815250601b60008973ffffffffffffffffffffffffffffffffffffffff1673ffffffffffffffffffffffffffffffffffffffff16815260200190815260200160002060003373ffffffffffffffffffffffffffffffffffffffff1673ffffffffffffffffffffffffffffffffffffffff16815260200190815260200160002054612ebd9092919063ffffffff16565b601b60008773ffffffffffffffffffffffffffffffffffffffff1673ffffffffffffffffffffffffffffffffffffffff16815260200190815260200160002060003373ffffffffffffffffffffffffffffffffffffffff1673ffffffffffffffffffffffffffffffffffffffff168152602001908152602001600020819055505b611738858585612f7d565b5060019150509392505050565b600061185b60195461184d601a6000600e60009054906101000a900473ffffffffffffffffffffffffffffffffffffffff1673ffffffffffffffffffffffffffffffffffffffff1673ffffffffffffffffffffffffffffffffffffffff1681526020019081526020016000205461183f601a6000600d60009054906101000a900473ffffffffffffffffffffffffffffffffffffffff1673ffffffffffffffffffffffffffffffffffffffff1673ffffffffffffffffffffffffffffffffffffffff168152602001908152602001600020546012600a0a63ee6b2800026000198161182c57fe5b06600019036132c090919063ffffffff16565b6132c090919063ffffffff16565b612d9890919063ffffffff16565b905090565b600a5481565b61186e612356565b61187757600080fd5b6001600460146101000a81548160ff021916908315150217905550565b61189c612356565b6118a557600080fd5b80600460006101000a81548173ffffffffffffffffffffffffffffffffffffffff021916908373ffffffffffffffffffffffffffffffffffffffff160217905550600660008273ffffffffffffffffffffffffffffffffffffffff1673ffffffffffffffffffffffffffffffffffffffff16815260200190815260200160002060009054906101000a90505050565b61193c612356565b61194557600080fd5b61194e8161330a565b50565b6000600260009054906101000a900460ff16905090565b6000600460149054906101000a900460ff16806119895750611988612356565b5b806119dd5750600560003373ffffffffffffffffffffffffffffffffffffffff1673ffffffffffffffffffffffffffffffffffffffff16815260200190815260200160002060009054906101000a900460ff165b6119e657600080fd5b611a7582601b60003373ffffffffffffffffffffffffffffffffffffffff1673ffffffffffffffffffffffffffffffffffffffff16815260200190815260200160002060008673ffffffffffffffffffffffffffffffffffffffff1673ffffffffffffffffffffffffffffffffffffffff16815260200190815260200160002054612d1090919063ffffffff16565b601b60003373ffffffffffffffffffffffffffffffffffffffff1673ffffffffffffffffffffffffffffffffffffffff16815260200190815260200160002060008573ffffffffffffffffffffffffffffffffffffffff1673ffffffffffffffffffffffffffffffffffffffff168152602001908152602001600020819055508273ffffffffffffffffffffffffffffffffffffffff163373ffffffffffffffffffffffffffffffffffffffff167f8c5be1e5ebec7d5bd14f71427d1e84f3dd0314c0f7b2291e5b200ac8c7c3b925601b60003373ffffffffffffffffffffffffffffffffffffffff1673ffffffffffffffffffffffffffffffffffffffff16815260200190815260200160002060008773ffffffffffffffffffffffffffffffffffffffff1673ffffffffffffffffffffffffffffffffffffffff168152602001908152602001600020546040518082815260200191505060405180910390a36001905092915050565b611be933612871565b611c3e576040517f08c379a000000000000000000000000000000000000000000000000000000000815260040180806020018281038252603081526020018061439a6030913960400191505060405180910390fd5b611c5381601854612d1090919063ffffffff16565b6018819055506000196fffffffffffffffffffffffffffffffff166018541115611c93576000196fffffffffffffffffffffffffffffffff166018819055505b611cc16018546012600a0a63ee6b28000260001981611cae57fe5b0660001903612d9890919063ffffffff16565b601981905550600460009054906101000a900473ffffffffffffffffffffffffffffffffffffffff1673ffffffffffffffffffffffffffffffffffffffff1663fff6cae96040518163ffffffff1660e01b8152600401600060405180830381600087803b158015611d3157600080fd5b505af1158015611d45573d6000803e3d6000fd5b50505050611d9b81601a60008573ffffffffffffffffffffffffffffffffffffffff1673ffffffffffffffffffffffffffffffffffffffff16815260200190815260200160002054612d1090919063ffffffff16565b601a60008473ffffffffffffffffffffffffffffffffffffffff1673ffffffffffffffffffffffffffffffffffffffff168152602001908152602001600020819055505050565b600460009054906101000a900473ffffffffffffffffffffffffffffffffffffffff1681565b60085481565b6000611e27601954601654612d9890919063ffffffff16565b905090565b601560149054906101000a900460ff1681565b6000611e95601954601a60008573ffffffffffffffffffffffffffffffffffffffff1673ffffffffffffffffffffffffffffffffffffffff16815260200190815260200160002054612d9890919063ffffffff16565b9050919050565b611ea4612356565b611ead57600080fd5b600260019054906101000a900473ffffffffffffffffffffffffffffffffffffffff1673ffffffffffffffffffffffffffffffffffffffff167ff8df31144d9c2f0f6b59d69b8b98abd5459d07f2742c4df920b25aae33c6482060405160405180910390a26000600260016101000a81548173ffffffffffffffffffffffffffffffffffffffff021916908373ffffffffffffffffffffffffffffffffffffffff160217905550565b611f5e612356565b611f6757600080fd5b6001600660008373ffffffffffffffffffffffffffffffffffffffff1673ffffffffffffffffffffffffffffffffffffffff16815260200190815260200160002060006101000a81548160ff02191690831515021790555050565b601560009054906101000a900473ffffffffffffffffffffffffffffffffffffffff1673ffffffffffffffffffffffffffffffffffffffff1663fff6cae96040518163ffffffff1660e01b8152600401600060405180830381600087803b15801561202c57600080fd5b505af1158015612040573d6000803e3d6000fd5b50505050565b6000612050612356565b61205957600080fd5b601760009054906101000a900460ff16156120dc576040517f08c379a00000000000000000000000000000000000000000000000000000000081526004018080602001828103825260098152602001807f54727920616761696e000000000000000000000000000000000000000000000081525060200191505060405180910390fd5b600082141561212957827f72725a3b1e5bd622d6bcd1339bb31279c351abe8f541ac7fd320f24e1b1641f26018546040518082815260200191505060405180910390a260185490506122e8565b60008212156121555761214a826000036018546132c090919063ffffffff16565b601881905550612171565b61216a82601854612d1090919063ffffffff16565b6018819055505b6000196fffffffffffffffffffffffffffffffff1660185411156121ab576000196fffffffffffffffffffffffffffffffff166018819055505b6121d96018546012600a0a63ee6b280002600019816121c657fe5b0660001903612d9890919063ffffffff16565b601981905550600460009054906101000a900473ffffffffffffffffffffffffffffffffffffffff1673ffffffffffffffffffffffffffffffffffffffff1663fff6cae96040518163ffffffff1660e01b8152600401600060405180830381600087803b15801561224957600080fd5b505af115801561225d573d6000803e3d6000fd5b505050506000612278601d54426132c090919063ffffffff16565b90506122a1612292601f548361336490919063ffffffff16565b826132c090919063ffffffff16565b601e81905550837f72725a3b1e5bd622d6bcd1339bb31279c351abe8f541ac7fd320f24e1b1641f26018546040518082815260200191505060405180910390a26018549150505b92915050565b601060009054906101000a900473ffffffffffffffffffffffffffffffffffffffff1681565b6000601760009054906101000a900460ff1615905090565b6000600260019054906101000a900473ffffffffffffffffffffffffffffffffffffffff16905090565b6000600260019054906101000a900473ffffffffffffffffffffffffffffffffffffffff1673ffffffffffffffffffffffffffffffffffffffff163373ffffffffffffffffffffffffffffffffffffffff1614905090565b6123b6612356565b6123bf57600080fd5b80601c60008473ffffffffffffffffffffffffffffffffffffffff1673ffffffffffffffffffffffffffffffffffffffff16815260200190815260200160002060006101000a81548160ff0219169083151502179055505050565b606060018054600181600116156101000203166002900480601f0160208091040260200160405190810160405280929190818152602001828054600181600116156101000203166002900480156124b25780601f10612487576101008083540402835291602001916124b2565b820191906000526020600020905b81548152906001019060200180831161249557829003601f168201915b5050505050905090565b60075481565b6124ca612356565b6124d357600080fd5b6124dc81613385565b50565b6124e83361330a565b565b6000600460149054906101000a900460ff168061250b575061250a612356565b5b8061255f5750600560003373ffffffffffffffffffffffffffffffffffffffff1673ffffffffffffffffffffffffffffffffffffffff16815260200190815260200160002060009054906101000a900460ff165b61256857600080fd5b6000601b60003373ffffffffffffffffffffffffffffffffffffffff1673ffffffffffffffffffffffffffffffffffffffff16815260200190815260200160002060008573ffffffffffffffffffffffffffffffffffffffff1673ffffffffffffffffffffffffffffffffffffffff168152602001908152602001600020549050808310612677576000601b60003373ffffffffffffffffffffffffffffffffffffffff1673ffffffffffffffffffffffffffffffffffffffff16815260200190815260200160002060008673ffffffffffffffffffffffffffffffffffffffff1673ffffffffffffffffffffffffffffffffffffffff1681526020019081526020016000208190555061270b565b61268a83826132c090919063ffffffff16565b601b60003373ffffffffffffffffffffffffffffffffffffffff1673ffffffffffffffffffffffffffffffffffffffff16815260200190815260200160002060008673ffffffffffffffffffffffffffffffffffffffff1673ffffffffffffffffffffffffffffffffffffffff168152602001908152602001600020819055505b8373ffffffffffffffffffffffffffffffffffffffff163373ffffffffffffffffffffffffffffffffffffffff167f8c5be1e5ebec7d5bd14f71427d1e84f3dd0314c0f7b2291e5b200ac8c7c3b925601b60003373ffffffffffffffffffffffffffffffffffffffff1673ffffffffffffffffffffffffffffffffffffffff16815260200190815260200160002060008873ffffffffffffffffffffffffffffffffffffffff1673ffffffffffffffffffffffffffffffffffffffff168152602001908152602001600020546040518082815260200191505060405180910390a3600191505092915050565b601560009054906101000a900473ffffffffffffffffffffffffffffffffffffffff1681565b600082600073ffffffffffffffffffffffffffffffffffffffff168173ffffffffffffffffffffffffffffffffffffffff16141561285a57600080fd5b612865338585612f7d565b50600191505092915050565b60006128878260036133df90919063ffffffff16565b9050919050565b6000806128a6601d54426132c090919063ffffffff16565b90506128e56128d4601f546128c6601e54856132c090919063ffffffff16565b61336490919063ffffffff16565b601f546132c090919063ffffffff16565b91505090565b60095481565b600f60009054906101000a900473ffffffffffffffffffffffffffffffffffffffff1681565b600460149054906101000a900460ff1681565b612932612356565b61293b57600080fd5b60005b8484905081101561299c5761298e3386868481811061295957fe5b9050602002013573ffffffffffffffffffffffffffffffffffffffff1685858581811061298257fe5b90506020020135612f7d565b50808060010191505061293e565b5050505050565b6000600660008373ffffffffffffffffffffffffffffffffffffffff1673ffffffffffffffffffffffffffffffffffffffff16815260200190815260200160002060009054906101000a900460ff169050919050565b600080612a72601954601a6000601560009054906101000a900473ffffffffffffffffffffffffffffffffffffffff1673ffffffffffffffffffffffffffffffffffffffff1673ffffffffffffffffffffffffffffffffffffffff16815260200190815260200160002054612d9890919063ffffffff16565b9050612ab3612a7f611745565b612aa5612a966002856134bd90919063ffffffff16565b866134bd90919063ffffffff16565b612d9890919063ffffffff16565b915050919050565b612ac3612356565b612acc57600080fd5b6001600560008373ffffffffffffffffffffffffffffffffffffffff1673ffffffffffffffffffffffffffffffffffffffff16815260200190815260200160002060006101000a81548160ff02191690831515021790555050565b601160009054906101000a900473ffffffffffffffffffffffffffffffffffffffff1681565b612b55612356565b612b5e57600080fd5b82600f60006101000a81548173ffffffffffffffffffffffffffffffffffffffff021916908373ffffffffffffffffffffffffffffffffffffffff16021790555081601060006101000a81548173ffffffffffffffffffffffffffffffffffffffff021916908373ffffffffffffffffffffffffffffffffffffffff16021790555080601160006101000a81548173ffffffffffffffffffffffffffffffffffffffff021916908373ffffffffffffffffffffffffffffffffffffffff160217905550505050565b6000601b60008473ffffffffffffffffffffffffffffffffffffffff1673ffffffffffffffffffffffffffffffffffffffff16815260200190815260200160002060008373ffffffffffffffffffffffffffffffffffffffff1673ffffffffffffffffffffffffffffffffffffffff16815260200190815260200160002054905092915050565b612cb5612356565b612cbe57600080fd5b612cc781613543565b50565b601460009054906101000a900473ffffffffffffffffffffffffffffffffffffffff1681565b601c6020528060005260406000206000915054906101000a900460ff1681565b600080828401905083811015612d8e576040517f08c379a000000000000000000000000000000000000000000000000000000000815260040180806020018281038252601b8152602001807f536166654d6174683a206164646974696f6e206f766572666c6f77000000000081525060200191505060405180910390fd5b8091505092915050565b6000612dda83836040518060400160405280601a81526020017f536166654d6174683a206469766973696f6e206279207a65726f00000000000081525061363d565b905092915050565b612dec82826133df565b15612e5f576040517f08c379a000000000000000000000000000000000000000000000000000000000815260040180806020018281038252601f8152602001807f526f6c65733a206163636f756e7420616c72656164792068617320726f6c650081525060200191505060405180910390fd5b60018260000160008373ffffffffffffffffffffffffffffffffffffffff1673ffffffffffffffffffffffffffffffffffffffff16815260200190815260200160002060006101000a81548160ff0219169083151502179055505050565b6000838311158290612f6a576040517f08c379a00000000000000000000000000000000000000000000000000000000081526004018080602001828103825283818151815260200191508051906020019080838360005b83811015612f2f578082015181840152602081019050612f14565b50505050905090810190601f168015612f5c5780820380516001836020036101000a031916815260200191505b509250505060405180910390fd5b5060008385039050809150509392505050565b6000601c60008573ffffffffffffffffffffffffffffffffffffffff1673ffffffffffffffffffffffffffffffffffffffff16815260200190815260200160002060009054906101000a900460ff161580156130235750601c60008473ffffffffffffffffffffffffffffffffffffffff1673ffffffffffffffffffffffffffffffffffffffff16815260200190815260200160002060009054906101000a900460ff16155b613095576040517f08c379a000000000000000000000000000000000000000000000000000000000815260040180806020018281038252600c8152602001807f696e5f626c61636b6c697374000000000000000000000000000000000000000081525060200191505060405180910390fd5b601760009054906101000a900460ff16156130bc576130b5848484613703565b90506132b9565b60006130d3601954846134bd90919063ffffffff16565b90506130dd613853565b156130eb576130ea61392a565b5b61313d81601a60008873ffffffffffffffffffffffffffffffffffffffff1673ffffffffffffffffffffffffffffffffffffffff168152602001908152602001600020546132c090919063ffffffff16565b601a60008773ffffffffffffffffffffffffffffffffffffffff1673ffffffffffffffffffffffffffffffffffffffff16815260200190815260200160002081905550600061318c8686614006565b61319657816131a2565b6131a186868461410f565b5b90506131f681601a60008873ffffffffffffffffffffffffffffffffffffffff1673ffffffffffffffffffffffffffffffffffffffff16815260200190815260200160002054612d1090919063ffffffff16565b601a60008773ffffffffffffffffffffffffffffffffffffffff1673ffffffffffffffffffffffffffffffffffffffff168152602001908152602001600020819055508473ffffffffffffffffffffffffffffffffffffffff168673ffffffffffffffffffffffffffffffffffffffff167fddf252ad1be2c89b69c2b068fc378daa952ba7f163c4a11628f55a4df523b3ef61329d60195485612d9890919063ffffffff16565b6040518082815260200191505060405180910390a36001925050505b9392505050565b600061330283836040518060400160405280601e81526020017f536166654d6174683a207375627472616374696f6e206f766572666c6f770000815250612ebd565b905092915050565b61331e8160036142dc90919063ffffffff16565b8073ffffffffffffffffffffffffffffffffffffffff167fe94479a9f7e1952cc78f2d6baab678adc1b772d936c6583def489e524cb6669260405160405180910390a250565b60008082141561337357600080fd5b81838161337c57fe5b06905092915050565b613399816003612de290919063ffffffff16565b8073ffffffffffffffffffffffffffffffffffffffff167f6ae172837ea30b801fbfcdd4108aa1d5bf8ff775444fd70256b44e6bf3dfc3f660405160405180910390a250565b60008073ffffffffffffffffffffffffffffffffffffffff168273ffffffffffffffffffffffffffffffffffffffff161415613466576040517f08c379a000000000000000000000000000000000000000000000000000000000815260040180806020018281038252602281526020018061440c6022913960400191505060405180910390fd5b8260000160008373ffffffffffffffffffffffffffffffffffffffff1673ffffffffffffffffffffffffffffffffffffffff16815260200190815260200160002060009054906101000a900460ff16905092915050565b6000808314156134d0576000905061353d565b60008284029050828482816134e157fe5b0414613538576040517f08c379a00000000000000000000000000000000000000000000000000000000081526004018080602001828103825260218152602001806143eb6021913960400191505060405180910390fd5b809150505b92915050565b600073ffffffffffffffffffffffffffffffffffffffff168173ffffffffffffffffffffffffffffffffffffffff16141561357d57600080fd5b8073ffffffffffffffffffffffffffffffffffffffff16600260019054906101000a900473ffffffffffffffffffffffffffffffffffffffff1673ffffffffffffffffffffffffffffffffffffffff167f8be0079c531659141344cd1fd0a4f28419497f9722a3daafe3b4186f6b6457e060405160405180910390a380600260016101000a81548173ffffffffffffffffffffffffffffffffffffffff021916908373ffffffffffffffffffffffffffffffffffffffff16021790555050565b600080831182906136e9576040517f08c379a00000000000000000000000000000000000000000000000000000000081526004018080602001828103825283818151815260200191508051906020019080838360005b838110156136ae578082015181840152602081019050613693565b50505050905090810190601f1680156136db5780820380516001836020036101000a031916815260200191505b509250505060405180910390fd5b5060008385816136f557fe5b049050809150509392505050565b60008061371b601954846134bd90919063ffffffff16565b905061376f81601a60008873ffffffffffffffffffffffffffffffffffffffff1673ffffffffffffffffffffffffffffffffffffffff168152602001908152602001600020546132c090919063ffffffff16565b601a60008773ffffffffffffffffffffffffffffffffffffffff1673ffffffffffffffffffffffffffffffffffffffff1681526020019081526020016000208190555061380481601a60008773ffffffffffffffffffffffffffffffffffffffff1673ffffffffffffffffffffffffffffffffffffffff16815260200190815260200160002054612d1090919063ffffffff16565b601a60008673ffffffffffffffffffffffffffffffffffffffff1673ffffffffffffffffffffffffffffffffffffffff1681526020019081526020016000208190555060019150509392505050565b6000601560009054906101000a900473ffffffffffffffffffffffffffffffffffffffff1673ffffffffffffffffffffffffffffffffffffffff163373ffffffffffffffffffffffffffffffffffffffff16141580156138c05750601760009054906101000a900460ff16155b80156138d85750601560149054906101000a900460ff165b80156139255750601654601a60003073ffffffffffffffffffffffffffffffffffffffff1673ffffffffffffffffffffffffffffffffffffffff1681526020019081526020016000205410155b905090565b6001601760006101000a81548160ff02191690831515021790555060006139556012546013546114b8565b61396157600754613964565b60005b905060006139bc601954601a60003073ffffffffffffffffffffffffffffffffffffffff1673ffffffffffffffffffffffffffffffffffffffff16815260200190815260200160002054612d9890919063ffffffff16565b905060006139fa60026139ec600b546139de87876134bd90919063ffffffff16565b612d9890919063ffffffff16565b612d9890919063ffffffff16565b90506000613a1182846132c090919063ffffffff16565b90506060600267ffffffffffffffff81118015613a2d57600080fd5b50604051908082528060200260200182016040528015613a5c5781602001602082028036833780820191505090505b5090503081600081518110613a6d57fe5b602002602001019073ffffffffffffffffffffffffffffffffffffffff16908173ffffffffffffffffffffffffffffffffffffffff1681525050601460009054906101000a900473ffffffffffffffffffffffffffffffffffffffff1673ffffffffffffffffffffffffffffffffffffffff1663ad5c46486040518163ffffffff1660e01b815260040160206040518083038186803b158015613b0f57600080fd5b505afa158015613b23573d6000803e3d6000fd5b505050506040513d6020811015613b3957600080fd5b810190808051906020019092919050505081600181518110613b5757fe5b602002602001019073ffffffffffffffffffffffffffffffffffffffff16908173ffffffffffffffffffffffffffffffffffffffff16815250506000479050601460009054906101000a900473ffffffffffffffffffffffffffffffffffffffff1673ffffffffffffffffffffffffffffffffffffffff1663791ac9478460008530426040518663ffffffff1660e01b815260040180868152602001858152602001806020018473ffffffffffffffffffffffffffffffffffffffff168152602001838152602001828103825285818151815260200191508051906020019060200280838360005b83811015613c5a578082015181840152602081019050613c3f565b505050509050019650505050505050600060405180830381600087803b158015613c8357600080fd5b505af1158015613c97573d6000803e3d6000fd5b505050506000613cb082476132c090919063ffffffff16565b90506000613cdc613ccb60028a612d9890919063ffffffff16565b600b546132c090919063ffffffff16565b90506000613d186002613d0a84613cfc8d886134bd90919063ffffffff16565b612d9890919063ffffffff16565b612d9890919063ffffffff16565b90506000613d4383613d35600954876134bd90919063ffffffff16565b612d9890919063ffffffff16565b90506000613d6e84613d60600854886134bd90919063ffffffff16565b612d9890919063ffffffff16565b90506000601060009054906101000a900473ffffffffffffffffffffffffffffffffffffffff1673ffffffffffffffffffffffffffffffffffffffff168261753090604051806000019050600060405180830381858888f193505050503d8060008114613df7576040519150601f19603f3d011682016040523d82523d6000602084013e613dfc565b606091505b50509050601160009054906101000a900473ffffffffffffffffffffffffffffffffffffffff1673ffffffffffffffffffffffffffffffffffffffff168361753090604051806000019050600060405180830381858888f193505050503d8060008114613e85576040519150601f19603f3d011682016040523d82523d6000602084013e613e8a565b606091505b5050809150506000905060008a1115613fdd57601460009054906101000a900473ffffffffffffffffffffffffffffffffffffffff1673ffffffffffffffffffffffffffffffffffffffff1663f305d71985308d600080600f60009054906101000a900473ffffffffffffffffffffffffffffffffffffffff16426040518863ffffffff1660e01b8152600401808773ffffffffffffffffffffffffffffffffffffffff1681526020018681526020018581526020018481526020018373ffffffffffffffffffffffffffffffffffffffff16815260200182815260200196505050505050506060604051808303818588803b158015613f8957600080fd5b505af1158015613f9d573d6000803e3d6000fd5b50505050506040513d6060811015613fb457600080fd5b810190808051906020019092919080519060200190929190805190602001909291905050505050505b5050505050505050505050506000601760006101000a81548160ff021916908315150217905550565b60008273ffffffffffffffffffffffffffffffffffffffff16601560009054906101000a900473ffffffffffffffffffffffffffffffffffffffff1673ffffffffffffffffffffffffffffffffffffffff1614806140b157508173ffffffffffffffffffffffffffffffffffffffff16601560009054906101000a900473ffffffffffffffffffffffffffffffffffffffff1673ffffffffffffffffffffffffffffffffffffffff16145b80156141075750600660008473ffffffffffffffffffffffffffffffffffffffff1673ffffffffffffffffffffffffffffffffffffffff16815260200190815260200160002060009054906101000a900460ff16155b905092915050565b600080600b549050601560009054906101000a900473ffffffffffffffffffffffffffffffffffffffff1673ffffffffffffffffffffffffffffffffffffffff168473ffffffffffffffffffffffffffffffffffffffff16141561418557614182600a5482612d1090919063ffffffff16565b90505b60006141ae600c546141a084876134bd90919063ffffffff16565b612d9890919063ffffffff16565b905061420281601a60003073ffffffffffffffffffffffffffffffffffffffff1673ffffffffffffffffffffffffffffffffffffffff16815260200190815260200160002054612d1090919063ffffffff16565b601a60003073ffffffffffffffffffffffffffffffffffffffff1673ffffffffffffffffffffffffffffffffffffffff168152602001908152602001600020819055503073ffffffffffffffffffffffffffffffffffffffff168673ffffffffffffffffffffffffffffffffffffffff167fddf252ad1be2c89b69c2b068fc378daa952ba7f163c4a11628f55a4df523b3ef6142a960195485612d9890919063ffffffff16565b6040518082815260200191505060405180910390a36142d181856132c090919063ffffffff16565b925050509392505050565b6142e682826133df565b61433b576040517f08c379a00000000000000000000000000000000000000000000000000000000081526004018080602001828103825260218152602001806143ca6021913960400191505060405180910390fd5b60008260000160008373ffffffffffffffffffffffffffffffffffffffff1673ffffffffffffffffffffffffffffffffffffffff16815260200190815260200160002060006101000a81548160ff021916908315150217905550505056fe4d696e746572526f6c653a2063616c6c657220646f6573206e6f74206861766520746865204d696e74657220726f6c65526f6c65733a206163636f756e7420646f6573206e6f74206861766520726f6c65536166654d6174683a206d756c7469706c69636174696f6e206f766572666c6f77526f6c65733a206163636f756e7420697320746865207a65726f2061646472657373a2646970667358221220e988c85d324f42dc65cf8a48bc59704cf403770ea0383ac52a8283638dd1b11b64736f6c63430007040033526f6c65733a206163636f756e7420697320746865207a65726f2061646472657373",
  "immutableReferences": {},
  "source": "pragma solidity ^0.7.4;\r\n\r\nlibrary SafeMathInt {\r\n    int256 private constant MIN_INT256 = int256(1) << 255;\r\n    int256 private constant MAX_INT256 = ~(int256(1) << 255);\r\n\r\n    function mul(int256 a, int256 b) internal pure returns (int256) {\r\n        int256 c = a * b;\r\n\r\n        require(c != MIN_INT256 || (a & MIN_INT256) != (b & MIN_INT256));\r\n        require((b == 0) || (c / b == a));\r\n        return c;\r\n    }\r\n\r\n    function div(int256 a, int256 b) internal pure returns (int256) {\r\n        require(b != -1 || a != MIN_INT256);\r\n\r\n        return a / b;\r\n    }\r\n\r\n    function sub(int256 a, int256 b) internal pure returns (int256) {\r\n        int256 c = a - b;\r\n        require((b >= 0 && c <= a) || (b < 0 && c > a));\r\n        return c;\r\n    }\r\n\r\n    function add(int256 a, int256 b) internal pure returns (int256) {\r\n        int256 c = a + b;\r\n        require((b >= 0 && c >= a) || (b < 0 && c < a));\r\n        return c;\r\n    }\r\n\r\n    function abs(int256 a) internal pure returns (int256) {\r\n        require(a != MIN_INT256);\r\n        return a < 0 ? -a : a;\r\n    }\r\n}\r\n\r\ninterface IERC20 {\r\n    function totalSupply() external view returns (uint256);\r\n\r\n    function balanceOf(address who) external view returns (uint256);\r\n\r\n    function allowance(address owner, address spender)\r\n        external\r\n        view\r\n        returns (uint256);\r\n\r\n    function transfer(address to, uint256 value) external returns (bool);\r\n\r\n    function approve(address spender, uint256 value) external returns (bool);\r\n\r\n    function transferFrom(\r\n        address from,\r\n        address to,\r\n        uint256 value\r\n    ) external returns (bool);\r\n\r\n    event Transfer(address indexed from, address indexed to, uint256 value);\r\n\r\n    event Approval(\r\n        address indexed owner,\r\n        address indexed spender,\r\n        uint256 value\r\n    );\r\n}\r\n\r\nlibrary SafeMath {\r\n    function add(uint256 a, uint256 b) internal pure returns (uint256) {\r\n        uint256 c = a + b;\r\n        require(c >= a, \"SafeMath: addition overflow\");\r\n\r\n        return c;\r\n    }\r\n\r\n    function sub(uint256 a, uint256 b) internal pure returns (uint256) {\r\n        return sub(a, b, \"SafeMath: subtraction overflow\");\r\n    }\r\n\r\n    function sub(\r\n        uint256 a,\r\n        uint256 b,\r\n        string memory errorMessage\r\n    ) internal pure returns (uint256) {\r\n        require(b <= a, errorMessage);\r\n        uint256 c = a - b;\r\n\r\n        return c;\r\n    }\r\n\r\n    function mul(uint256 a, uint256 b) internal pure returns (uint256) {\r\n        if (a == 0) {\r\n            return 0;\r\n        }\r\n\r\n        uint256 c = a * b;\r\n        require(c / a == b, \"SafeMath: multiplication overflow\");\r\n\r\n        return c;\r\n    }\r\n\r\n    function div(uint256 a, uint256 b) internal pure returns (uint256) {\r\n        return div(a, b, \"SafeMath: division by zero\");\r\n    }\r\n\r\n    function div(\r\n        uint256 a,\r\n        uint256 b,\r\n        string memory errorMessage\r\n    ) internal pure returns (uint256) {\r\n        require(b > 0, errorMessage);\r\n        uint256 c = a / b;\r\n\r\n        return c;\r\n    }\r\n\r\n    function mod(uint256 a, uint256 b) internal pure returns (uint256) {\r\n        require(b != 0);\r\n        return a % b;\r\n    }\r\n}\r\n\r\ninterface InterfaceLP {\r\n    function sync() external;\r\n}\r\n\r\nlibrary Roles {\r\n    struct Role {\r\n        mapping (address => bool) bearer;\r\n    }\r\n\r\n    /**\r\n     * @dev Give an account access to this role.\r\n     */\r\n    function add(Role storage role, address account) internal {\r\n        require(!has(role, account), \"Roles: account already has role\");\r\n        role.bearer[account] = true;\r\n    }\r\n\r\n    /**\r\n     * @dev Remove an account's access to this role.\r\n     */\r\n    function remove(Role storage role, address account) internal {\r\n        require(has(role, account), \"Roles: account does not have role\");\r\n        role.bearer[account] = false;\r\n    }\r\n\r\n    /**\r\n     * @dev Check if an account has this role.\r\n     * @return bool\r\n     */\r\n    function has(Role storage role, address account) internal view returns (bool) {\r\n        require(account != address(0), \"Roles: account is the zero address\");\r\n        return role.bearer[account];\r\n    }\r\n}\r\n\r\ncontract MinterRole {\r\n    using Roles for Roles.Role;\r\n\r\n    event MinterAdded(address indexed account);\r\n    event MinterRemoved(address indexed account);\r\n\r\n    Roles.Role private _minters;\r\n\r\n    constructor () {\r\n        _addMinter(msg.sender);\r\n    }\r\n\r\n    modifier onlyMinter() {\r\n        require(isMinter(msg.sender), \"MinterRole: caller does not have the Minter role\");\r\n        _;\r\n    }\r\n\r\n    function isMinter(address account) public view returns (bool) {\r\n        return _minters.has(account);\r\n    }\r\n\r\n    function renounceMinter() public {\r\n        _removeMinter(msg.sender);\r\n    }\r\n\r\n    function _addMinter(address account) internal {\r\n        _minters.add(account);\r\n        emit MinterAdded(account);\r\n    }\r\n\r\n    function _removeMinter(address account) internal {\r\n        _minters.remove(account);\r\n        emit MinterRemoved(account);\r\n    }\r\n}\r\n\r\nabstract contract ERC20Detailed is IERC20 {\r\n    string private _name;\r\n    string private _symbol;\r\n    uint8 private _decimals;\r\n\r\n    constructor(\r\n        string memory name,\r\n        string memory symbol,\r\n        uint8 decimals\r\n    ) {\r\n        _name = name;\r\n        _symbol = symbol;\r\n        _decimals = decimals;\r\n    }\r\n\r\n    function name() public view returns (string memory) {\r\n        return _name;\r\n    }\r\n\r\n    function symbol() public view returns (string memory) {\r\n        return _symbol;\r\n    }\r\n\r\n    function decimals() public view returns (uint8) {\r\n        return _decimals;\r\n    }\r\n}\r\n\r\ninterface IDEXRouter {\r\n    function factory() external pure returns (address);\r\n\r\n    function WETH() external pure returns (address);\r\n\r\n    function addLiquidity(\r\n        address tokenA,\r\n        address tokenB,\r\n        uint256 amountADesired,\r\n        uint256 amountBDesired,\r\n        uint256 amountAMin,\r\n        uint256 amountBMin,\r\n        address to,\r\n        uint256 deadline\r\n    )\r\n        external\r\n        returns (\r\n            uint256 amountA,\r\n            uint256 amountB,\r\n            uint256 liquidity\r\n        );\r\n\r\n    function addLiquidityETH(\r\n        address token,\r\n        uint256 amountTokenDesired,\r\n        uint256 amountTokenMin,\r\n        uint256 amountETHMin,\r\n        address to,\r\n        uint256 deadline\r\n    )\r\n        external\r\n        payable\r\n        returns (\r\n            uint256 amountToken,\r\n            uint256 amountETH,\r\n            uint256 liquidity\r\n        );\r\n\r\n    function swapExactTokensForTokensSupportingFeeOnTransferTokens(\r\n        uint256 amountIn,\r\n        uint256 amountOutMin,\r\n        address[] calldata path,\r\n        address to,\r\n        uint256 deadline\r\n    ) external;\r\n\r\n    function swapExactETHForTokensSupportingFeeOnTransferTokens(\r\n        uint256 amountOutMin,\r\n        address[] calldata path,\r\n        address to,\r\n        uint256 deadline\r\n    ) external payable;\r\n\r\n    function swapExactTokensForETHSupportingFeeOnTransferTokens(\r\n        uint256 amountIn,\r\n        uint256 amountOutMin,\r\n        address[] calldata path,\r\n        address to,\r\n        uint256 deadline\r\n    ) external;\r\n}\r\n\r\ninterface IDEXFactory {\r\n    function createPair(address tokenA, address tokenB)\r\n        external\r\n        returns (address pair);\r\n}\r\n\r\ncontract Ownable {\r\n    address private _owner;\r\n\r\n    event OwnershipRenounced(address indexed previousOwner);\r\n\r\n    event OwnershipTransferred(\r\n        address indexed previousOwner,\r\n        address indexed newOwner\r\n    );\r\n\r\n    constructor() {\r\n        _owner = msg.sender;\r\n    }\r\n\r\n    function owner() public view returns (address) {\r\n        return _owner;\r\n    }\r\n\r\n    modifier onlyOwner() {\r\n        require(isOwner());\r\n        _;\r\n    }\r\n\r\n    function isOwner() public view returns (bool) {\r\n        return msg.sender == _owner;\r\n    }\r\n\r\n    function renounceOwnership() public onlyOwner {\r\n        emit OwnershipRenounced(_owner);\r\n        _owner = address(0);\r\n    }\r\n\r\n    function transferOwnership(address newOwner) public onlyOwner {\r\n        _transferOwnership(newOwner);\r\n    }\r\n\r\n    function _transferOwnership(address newOwner) internal {\r\n        require(newOwner != address(0));\r\n        emit OwnershipTransferred(_owner, newOwner);\r\n        _owner = newOwner;\r\n    }\r\n}\r\n\r\ncontract ERIS is ERC20Detailed, Ownable, MinterRole {\r\n    using SafeMath for uint256;\r\n    using SafeMathInt for int256;\r\n\r\n    event LogRebase(uint256 indexed epoch, uint256 totalSupply);\r\n\r\n    InterfaceLP public pairContract;\r\n\r\n    bool public initialDistributionFinished;\r\n\r\n    mapping(address => bool) allowTransfer;\r\n    mapping(address => bool) _isFeeExempt;\r\n\r\n    modifier initialDistributionLock() {\r\n        require(\r\n            initialDistributionFinished ||\r\n                isOwner() ||\r\n                allowTransfer[msg.sender]\r\n        );\r\n        _;\r\n    }\r\n\r\n    modifier validRecipient(address to) {\r\n        require(to != address(0x0));\r\n        _;\r\n    }\r\n\r\n    bool private constant TESTING = true;\r\n    uint256 private constant DECIMALS = 18;\r\n    uint256 private constant MAX_UINT256 = ~uint256(0);\r\n\r\n    uint256 private constant INITIAL_FRAGMENTS_SUPPLY = 4 * 10**9 * 10**DECIMALS;\r\n\r\n    uint256 public liquidityFee = 5;\r\n    uint256 public Treasury = 3;\r\n    uint256 public RiskFreeValue = 5;\r\n    uint256 public sellFee = 5;\r\n    uint256 public totalFee =\r\n        liquidityFee.add(Treasury).add(RiskFreeValue);\r\n    uint256 public feeDenominator = 100;\r\n\r\n    address DEAD = 0x000000000000000000000000000000000000dEaD;\r\n    address ZERO = 0x0000000000000000000000000000000000000000;\r\n\r\n    address public autoLiquidityReceiver;\r\n    address public TreasuryReceiver;\r\n    address public RiskFreeValueReceiver;\r\n\r\n    uint256 targetLiquidity = 50;\r\n    uint256 targetLiquidityDenominator = 100;\r\n\r\n    IDEXRouter public router;\r\n    address public pair = 0xe3aA453FEFA2eE7305b70DF5FA6129F90C18c04e;\r\n\r\n    bool public swapEnabled = true;\r\n    // uint256 private gonSwapThreshold = (TOTAL_GONS * 10) / 10000;\r\n    uint256 private gonSwapThreshold = (TOTAL_GONS * 10) / 100000000;\r\n    bool inSwap;\r\n    modifier swapping() {\r\n        inSwap = true;\r\n        _;\r\n        inSwap = false;\r\n    }\r\n\r\n    uint256 private constant TOTAL_GONS =\r\n        MAX_UINT256 - (MAX_UINT256 % INITIAL_FRAGMENTS_SUPPLY);\r\n\r\n    uint256 private constant MAX_SUPPLY = ~uint128(0);\r\n\r\n    uint256 private _totalSupply;\r\n    uint256 private _gonsPerFragment;\r\n    mapping(address => uint256) private _gonBalances;\r\n\r\n    mapping(address => mapping(address => uint256)) private _allowedFragments;\r\n    mapping(address => bool) public blacklist;\r\n\r\n    uint256 private deployedTimestamp;\r\n    uint256 private lastRebaseTimestampSec;\r\n    uint256 private minRebaseTimeIntervalSec;\r\n\r\n    constructor(address treasury) ERC20Detailed(\"ERIS Auto Staking Token\", \"ERIS\", uint8(DECIMALS)) {\r\n        if (TESTING) \r\n            router = IDEXRouter(0x1Ed675D5e63314B760162A3D1Cae1803DCFC87C7); // Router of BSC testnet\r\n        else \r\n            router = IDEXRouter(0x10ED43C718714eb63d5aA57B78B54704E256024E); //Sushi 0x1b02dA8Cb0d097eB8D57A175b88c7D8b47997506 // Cake 0x10ED43C718714eb63d5aA57B78B54704E256024E\r\n\r\n        pair = IDEXFactory(router.factory()).createPair(\r\n            router.WETH(),\r\n            address(this)\r\n        );\r\n\r\n        autoLiquidityReceiver = 0xfa1D544D46c7c50d7B7d7D2e85915F1b129a9386;\r\n        TreasuryReceiver = treasury; //0x27e0C3c11F2184C323d8c16129b3A26CC5c7b382;\r\n        RiskFreeValueReceiver = 0x00dE99c90E8971D3E1c9cBA724381B537F6e88C1;\r\n\r\n        _allowedFragments[address(this)][address(router)] = type(uint256).max;\r\n        pairContract = InterfaceLP(pair);\r\n\r\n        _totalSupply = INITIAL_FRAGMENTS_SUPPLY;\r\n        _gonBalances[TreasuryReceiver] = TOTAL_GONS;\r\n        _gonsPerFragment = TOTAL_GONS.div(_totalSupply);\r\n\r\n        initialDistributionFinished = false;\r\n        _isFeeExempt[TreasuryReceiver] = true;\r\n        _isFeeExempt[address(this)] = true;\r\n\r\n        _transferOwnership(TreasuryReceiver);\r\n        deployedTimestamp           = block.timestamp;\r\n        lastRebaseTimestampSec      = 0;\r\n        minRebaseTimeIntervalSec    = 1800; // 30 min\r\n        emit Transfer(address(0x0), TreasuryReceiver, _totalSupply);\r\n    }\r\n\r\n    function updateBlacklist(address _user, bool _flag) public onlyOwner{\r\n        blacklist[_user] = _flag;\r\n    }\r\n\r\n    function rebase(uint256 epoch, int256 supplyDelta)\r\n        external\r\n        onlyOwner\r\n        returns (uint256)\r\n    {\r\n        require(!inSwap, \"Try again\");\r\n        if (supplyDelta == 0) {\r\n            emit LogRebase(epoch, _totalSupply);\r\n            return _totalSupply;\r\n        }\r\n\r\n        if (supplyDelta < 0) {\r\n            _totalSupply = _totalSupply.sub(uint256(-supplyDelta));\r\n        } else {\r\n            _totalSupply = _totalSupply.add(uint256(supplyDelta));\r\n        }\r\n\r\n        if (_totalSupply > MAX_SUPPLY) {\r\n            _totalSupply = MAX_SUPPLY;\r\n        }\r\n\r\n        _gonsPerFragment = TOTAL_GONS.div(_totalSupply);\r\n        pairContract.sync();\r\n        \r\n        uint256 elapsed = block.timestamp.sub(deployedTimestamp);\r\n        lastRebaseTimestampSec = elapsed.sub(elapsed.mod(minRebaseTimeIntervalSec));\r\n        emit LogRebase(epoch, _totalSupply);\r\n        return _totalSupply;\r\n    }\r\n\r\n    function remainToRabase() external view returns(uint256) {\r\n        uint256 elapsed = block.timestamp.sub(deployedTimestamp);\r\n        return minRebaseTimeIntervalSec.sub(elapsed.sub(lastRebaseTimestampSec).mod(minRebaseTimeIntervalSec));\r\n    }\r\n\r\n    function totalSupply() external view override returns (uint256) {\r\n        return _totalSupply;\r\n    }\r\n\r\n    function transfer(address to, uint256 value)\r\n        external\r\n        override\r\n        validRecipient(to)\r\n        // initialDistributionLock [KERIS]\r\n        returns (bool)\r\n    {\r\n        _transferFrom(msg.sender, to, value);\r\n        return true;\r\n    }\r\n\r\n    function setLP(address _address) external onlyOwner {\r\n        pairContract = InterfaceLP(_address);\r\n        _isFeeExempt[_address];\r\n    }\r\n\r\n    function allowance(address owner_, address spender)\r\n        external\r\n        view\r\n        override\r\n        returns (uint256)\r\n    {\r\n        return _allowedFragments[owner_][spender];\r\n    }\r\n\r\n    function balanceOf(address who) external view override returns (uint256) {\r\n        return _gonBalances[who].div(_gonsPerFragment);\r\n    }\r\n\r\n    function _basicTransfer(\r\n        address from,\r\n        address to,\r\n        uint256 amount\r\n    ) internal returns (bool) {\r\n        uint256 gonAmount = amount.mul(_gonsPerFragment);\r\n        _gonBalances[from] = _gonBalances[from].sub(gonAmount);\r\n        _gonBalances[to] = _gonBalances[to].add(gonAmount);\r\n        return true;\r\n    }\r\n\r\n    function _transferFrom(\r\n        address sender,\r\n        address recipient,\r\n        uint256 amount\r\n    ) internal returns (bool) {\r\n        require(!blacklist[sender] && !blacklist[recipient], 'in_blacklist');\r\n        if (inSwap) {\r\n            return _basicTransfer(sender, recipient, amount);\r\n        }\r\n\r\n        uint256 gonAmount = amount.mul(_gonsPerFragment);\r\n\r\n        if (shouldSwapBack()) {\r\n            swapBack();\r\n        }\r\n\r\n        _gonBalances[sender] = _gonBalances[sender].sub(gonAmount);\r\n\r\n        uint256 gonAmountReceived = \r\n        shouldTakeFee(sender, recipient)\r\n            ? takeFee(sender, recipient, gonAmount)\r\n            : gonAmount;\r\n        _gonBalances[recipient] = _gonBalances[recipient].add(gonAmountReceived);\r\n\r\n        emit Transfer(\r\n            sender,\r\n            recipient,\r\n            gonAmountReceived.div(_gonsPerFragment)\r\n        );\r\n        return true;\r\n    }\r\n\r\n    function transferFrom(\r\n        address from,\r\n        address to,\r\n        uint256 value\r\n    ) external override validRecipient(to) returns (bool) {\r\n        if (_allowedFragments[from][msg.sender] != type(uint256).max) {\r\n            _allowedFragments[from][msg.sender] = _allowedFragments[from][\r\n                msg.sender\r\n            ].sub(value, \"Insufficient Allowance\");\r\n        }\r\n\r\n        _transferFrom(from, to, value);\r\n        return true;\r\n    }\r\n\r\n    function swapBack() internal swapping {\r\n        uint256 dynamicLiquidityFee = isOverLiquified(\r\n            targetLiquidity,\r\n            targetLiquidityDenominator\r\n        )\r\n            ? 0\r\n            : liquidityFee;\r\n        uint256 contractTokenBalance = _gonBalances[address(this)].div(\r\n            _gonsPerFragment\r\n        );\r\n        uint256 amountToLiquify = contractTokenBalance\r\n            .mul(dynamicLiquidityFee)\r\n            .div(totalFee)\r\n            .div(2);\r\n        uint256 amountToSwap = contractTokenBalance.sub(amountToLiquify);\r\n\r\n        address[] memory path = new address[](2);\r\n        path[0] = address(this);\r\n        path[1] = router.WETH();\r\n\r\n        uint256 balanceBefore = address(this).balance;\r\n\r\n        router.swapExactTokensForETHSupportingFeeOnTransferTokens(\r\n            amountToSwap,\r\n            0,\r\n            path,\r\n            address(this),\r\n            block.timestamp\r\n        );\r\n\r\n        uint256 amountETH = address(this).balance.sub(balanceBefore);\r\n\r\n        uint256 totalETHFee = totalFee.sub(dynamicLiquidityFee.div(2));\r\n\r\n        uint256 amountETHLiquidity = amountETH\r\n            .mul(dynamicLiquidityFee)\r\n            .div(totalETHFee)\r\n            .div(2);\r\n        uint256 amountETHRiskFreeValue = amountETH.mul(RiskFreeValue).div(totalETHFee);\r\n        uint256 amountETHTreasury = amountETH.mul(Treasury).div(\r\n            totalETHFee\r\n        );\r\n\r\n        (bool success, ) = payable(TreasuryReceiver).call{\r\n            value: amountETHTreasury,\r\n            gas: 30000\r\n        }(\"\");\r\n        (success, ) = payable(RiskFreeValueReceiver).call{\r\n            value: amountETHRiskFreeValue,\r\n            gas: 30000\r\n        }(\"\");\r\n\r\n        success = false;\r\n\r\n        if (amountToLiquify > 0) {\r\n            router.addLiquidityETH{value: amountETHLiquidity}(\r\n                address(this),\r\n                amountToLiquify,\r\n                0,\r\n                0,\r\n                autoLiquidityReceiver,\r\n                block.timestamp\r\n            );\r\n        }\r\n    }\r\n\r\n    function takeFee(address sender, address recipient, uint256 gonAmount)\r\n        internal\r\n        returns (uint256)\r\n    {\r\n        uint256 _totalFee = totalFee;\r\n        if(recipient == pair) _totalFee = _totalFee.add(sellFee);\r\n\r\n        uint256 feeAmount = gonAmount.mul(_totalFee).div(feeDenominator);\r\n\r\n        _gonBalances[address(this)] = _gonBalances[address(this)].add(\r\n            feeAmount\r\n        );\r\n        emit Transfer(sender, address(this), feeAmount.div(_gonsPerFragment));\r\n\r\n        return gonAmount.sub(feeAmount);\r\n    }\r\n    \r\n    function decreaseAllowance(address spender, uint256 subtractedValue)\r\n        external\r\n        initialDistributionLock\r\n        returns (bool)\r\n    {\r\n        uint256 oldValue = _allowedFragments[msg.sender][spender];\r\n        if (subtractedValue >= oldValue) {\r\n            _allowedFragments[msg.sender][spender] = 0;\r\n        } else {\r\n            _allowedFragments[msg.sender][spender] = oldValue.sub(\r\n                subtractedValue\r\n            );\r\n        }\r\n        emit Approval(\r\n            msg.sender,\r\n            spender,\r\n            _allowedFragments[msg.sender][spender]\r\n        );\r\n        return true;\r\n    }\r\n\r\n    function increaseAllowance(address spender, uint256 addedValue)\r\n        external\r\n        initialDistributionLock\r\n        returns (bool)\r\n    {\r\n        _allowedFragments[msg.sender][spender] = _allowedFragments[msg.sender][\r\n            spender\r\n        ].add(addedValue);\r\n        emit Approval(\r\n            msg.sender,\r\n            spender,\r\n            _allowedFragments[msg.sender][spender]\r\n        );\r\n        return true;\r\n    }\r\n\r\n    function approve(address spender, uint256 value)\r\n        external\r\n        override\r\n        initialDistributionLock\r\n        returns (bool)\r\n    {\r\n        _allowedFragments[msg.sender][spender] = value;\r\n        emit Approval(msg.sender, spender, value);\r\n        return true;\r\n    }\r\n\r\n    function checkFeeExempt(address _addr) external view returns (bool) {\r\n        return _isFeeExempt[_addr];\r\n    }\r\n\r\n    function setInitialDistributionFinished() external onlyOwner {\r\n        initialDistributionFinished = true;\r\n    }\r\n\r\n    function enableTransfer(address _addr) external onlyOwner {\r\n        allowTransfer[_addr] = true;\r\n    }\r\n\r\n    function setFeeExempt(address _addr) external onlyOwner {\r\n        _isFeeExempt[_addr] = true;\r\n    }\r\n\r\n    function shouldTakeFee(address from, address to) internal view returns (bool) {\r\n        return (pair == from || pair == to) && (!_isFeeExempt[from]);\r\n    }\r\n\r\n    function mint(address recipient, uint256 amount) external onlyMinter {\r\n        _totalSupply = _totalSupply.add(uint256(amount));\r\n\r\n        if (_totalSupply > MAX_SUPPLY) {\r\n            _totalSupply = MAX_SUPPLY;\r\n        }\r\n\r\n        _gonsPerFragment = TOTAL_GONS.div(_totalSupply);\r\n        pairContract.sync();\r\n\r\n        _gonBalances[recipient] = _gonBalances[recipient].add(amount);\r\n    }\r\n\r\n    function shouldSwapBack() internal view returns (bool) {\r\n        return\r\n            msg.sender != pair &&\r\n            !inSwap &&\r\n            swapEnabled &&\r\n            _gonBalances[address(this)] >= gonSwapThreshold;\r\n    }\r\n\r\n    function getCirculatingSupply() public view returns (uint256) {\r\n        return\r\n            (TOTAL_GONS.sub(_gonBalances[DEAD]).sub(_gonBalances[ZERO])).div(\r\n                _gonsPerFragment\r\n            );\r\n    }\r\n\r\n    function setTargetLiquidity(uint256 target, uint256 accuracy) external onlyOwner {\r\n        targetLiquidity = target;\r\n        targetLiquidityDenominator = accuracy;\r\n    }\r\n\r\n    function addMinter(address account) public onlyOwner {\r\n        _addMinter(account);\r\n    }\r\n\r\n    function removeMinter(address account) public onlyOwner {\r\n        _removeMinter(account);\r\n    }\r\n\r\n    function isNotInSwap() external view returns (bool) {\r\n        return !inSwap;\r\n    }\r\n\r\n    function sendPresale(address[] calldata recipients, uint256[] calldata values)\r\n        external\r\n        onlyOwner\r\n    {\r\n      for (uint256 i = 0; i < recipients.length; i++) {\r\n        _transferFrom(msg.sender, recipients[i], values[i]);\r\n      }\r\n    }\r\n\r\n    function checkSwapThreshold() external view returns (uint256) {\r\n        return gonSwapThreshold.div(_gonsPerFragment);\r\n    }\r\n\r\n    function manualSync() external {\r\n        InterfaceLP(pair).sync();\r\n    }\r\n\r\n    function setFeeReceivers(\r\n        address _autoLiquidityReceiver,\r\n        address _TreasuryReceiver,\r\n        address _RiskFreeValueReceiver\r\n    ) external onlyOwner {\r\n        autoLiquidityReceiver = _autoLiquidityReceiver;\r\n        TreasuryReceiver = _TreasuryReceiver;\r\n        RiskFreeValueReceiver = _RiskFreeValueReceiver;\r\n    }\r\n\r\n    function getLiquidityBacking(uint256 accuracy)\r\n        public\r\n        view\r\n        returns (uint256)\r\n    {\r\n        uint256 liquidityBalance = _gonBalances[pair].div(_gonsPerFragment);\r\n        return\r\n            accuracy.mul(liquidityBalance.mul(2)).div(getCirculatingSupply());\r\n    }\r\n    \r\n    function isOverLiquified(uint256 target, uint256 accuracy)\r\n        public\r\n        view\r\n        returns (bool)\r\n    {\r\n        return getLiquidityBacking(accuracy) > target;\r\n    }\r\n\r\n    receive() external payable {}\r\n}",
  "sourcePath": "D:\\Working\\Freelancing\\2.ERIS\\Project\\eris-token\\contracts\\ERIS.sol",
  "compiler": {
    "name": "solc",
    "version": "0.7.4+commit.3f05b770.Emscripten.clang"
  },
  "schemaVersion": "3.4.4",
  "updatedAt": "2022-02-07T18:24:21.793Z",
  "devdoc": {
    "kind": "dev",
    "methods": {},
    "version": 1
  },
  "userdoc": {
    "kind": "user",
    "methods": {},
    "version": 1
  }
}